:020000040800F2
:10000000E8170020B5010008AF3900088334000864
:10001000AD390008211600087D40000800000000EE
:10002000000000000000000000000000673B000826
:100030005B16000800000000653B0008693B0008F3
:10004000CF010008CF010008CF010008CF01000850
:10005000CF010008CF010008CF010008CF01000840
:10006000CF010008CF010008CF01000825160008C5
:10007000CF010008CF010008CF010008CF01000820
:10008000CF010008CF010008CF010008CF01000810
:10009000CF010008CF010008CF010008CF01000800
:1000A000CF010008CF010008CF010008CF010008F0
:1000B000CF010008CF010008CF010008CF010008E0
:1000C000CF010008CF010008CF010008CF010008D0
:1000D000CF01000871400008CF010008CF010008DF
:1000E000CF010008CF010008CF01000800F002F89E
:1000F00000F050F80AA090E8000C82448344AAF172
:100100000107DA4501D100F045F8AFF2090EBAE86F
:100110000F0013F0010F18BFFB1A43F0010318473B
:10012000F85A0000185B0000103A24BF78C878C164
:10013000FAD8520724BF30C830C144BF04680C60ED
:10014000704700000023002400250026103A28BF35
:1001500078C1FBD8520728BF30C148BF0B60704739
:10016000662905F0E280642900F08480752900F09A
:100170008180732900F06F84002070471FB500F064
:100180006FFC04000020002104F068FAE0601FBD4D
:1001900010B510BD00F064FD1146FFF7EFFF03F04E
:1001A000F9FF00F082FD03B4FFF7F2FF03BC00F09B
:1001B000C5FD00000948804709480047FEE7FEE703
:1001C000FEE7FEE7FEE7FEE7FEE7FEE7FEE7FEE707
:1001D00004480549054A064B70470000E53B000806
:1001E000ED000008E8110020E8170020E8130020C7
:1001F000E81300200FB41CB5084B06AA7B446946DF
:100200000090059800F0FDFB04460020694600F0D0
:100210000BFC20461CBC5DF814FB00002908000004
:1002200070B50C460546012A05D02878800600D511
:10023000EA69002302E0012305E05B1C934202D23D
:10024000E05C0028F9D1A869E618C01AA861286AFC
:10025000184428622846AFF3008004E0D5E9012164
:1002600014F8010B9047B442F8D32846AFF300804E
:1002700070BD00002DE9F041064600241068752984
:10028000314616A510D0AFF30080002802DA4042B4
:1002900013A507E031688A0701D512A502E04907D6
:1002A00004D511A5012401E0AFF3008000210A224A
:1002B00006F1240709E0B0FBF2FCB0FBF2F302FB0D
:1002C0001C00303078541846491C0028F3D12346CE
:1002D0002A463046BDE8F04100F025B90000000094
:1002E0002D0000002B000000200000002DE9F04749
:1002F0004FF0000A89460446C0F820A02046E16875
:100300008847002876D0252806D0D4E901219047D7
:10031000206A401C2062F1E7E168204600268847F9
:10032000C4F81CA005460027C4F818A02A2D09D03F
:10033000284603F0C8FE38B304EB8708303DC8F800
:10034000185019E059F8041B204604EB870291610C
:10035000E1688847012F054618D1E069002820DAB6
:1003600026F020061DE0D8F8180000EB800005EB11
:1003700040003038C8F818002046E1688847054634
:1003800003F0A1FE0028EED1012F0AD02E2D08D1B6
:100390002046E16888477F1C0546022F46F020066C
:1003A000C4DBA069002803DA404246F00106A061E0
:1003B000F00701D026F010066C2D0AD0682D08D069
:1003C0004C2D39D06A2D35D0742D35D07A2D33D0BF
:1003D00016E0E1682F4620468847B84205460AD114
:1003E0006C2F27D04FF48060E16806432046884791
:1003F000054605E027E06C2F1AD04FF480700643C5
:100400000DB3A5F14100192802D8203546F4006645
:100410004A462946204626604E46FFF7A1FE80B197
:1004200001280BD0F61D26F0070000F1080965E74A
:100430004020E4E78020D7E70020D5E706F1040953
:100440005CE7284661E7206ABDE8F08740EA0103DF
:10045000024630B59B0710D14FF0013400E008C2CE
:1004600008C91D1B9D4315EAC41FF8D013F0FF01F6
:1004700002F8011B0DD01B0AF8E711F8013B002B15
:1004800002F8013B05D011F8013B002B02F8013BBB
:10049000F3D130BD10B5431C02E010F8011B71B15F
:1004A0008107FAD14FF0013202C88C1A8C4314EA4A
:1004B000C211F9D0C01A0A0603D0C01E10BDC01A5E
:1004C00010BD0A0401D0801E10BD0902FCD0401EE0
:1004D00010BD4FF0000200B51346944696462039F1
:1004E00022BFA0E80C50A0E80C50B1F12001BFF4ED
:1004F000F7AF090728BFA0E80C5048BF0CC05DF853
:1005000004EB890028BF40F8042B08BF704748BFA0
:1005100020F8022B11F0804F18BF00F8012B704714
:100520007047704770472DE9F0470D46994692464F
:10053000044600F124080168880604D5E06921F02A
:100540001001216000E00120A84201DD471B00E00E
:100550000027A1697A1902EB0900081AA061207826
:10056000C00602D42046AFF30080002608E0D4E99C
:1005700001211AF806009047206A401C761C206270
:100580004E45F4DB2078C0060AD52046AFF3008044
:1005900006E0D4E9012130209047206A401C206207
:1005A000381EA7F10107F4DC07E0D4E9012118F8AF
:1005B00005009047206A401C2062281EA5F1010515
:1005C000F3DC2046AFF300802078000602D502203D
:1005D000BDE8F0870120FBE770472DE9FF4F0C468F
:1005E0001E464FF0FF378BB0D2E90001DDF8608086
:1005F0000A908A46C1F30A5505B93D4600210846CE
:100600004FF00000BAF1000F00F4400005DA00EBF3
:1006100080004FF4400101EA50004FEA9059B9F1CF
:10062000010F00DDB9460A9850EA4A000ED044F6A0
:100630001050A5F2FF3545432F14B8F1000F1ED01E
:100640007542291E1EDDC9F100021CE0B8F1010F40
:100650004FF0000001D0302103E0F24305E02154C7
:10066000401CB042FBDB30460022002121540B9994
:10067000C1F80880C1E900200FB0BDE8F08FBD1BB4
:100680006D1CDEE74A4600DA694206A800F072FAFD
:1006900006AB93E8070003AB83E8070050460A99CE
:1006A00000F053FB8DE80700A0F500501F380090C4
:1006B0000398002D0ADD42F21F014A460844002338
:1006C00003A90390684600F0BCFD09E0A0F50050C6
:1006D0004A461F38002303A90390684600F0C6FD70
:1006E0008DE807000004000C03D04FF0FF304108F4
:1006F00000E01046B8F1000F03D00022009215462A
:100700001EE0751E05D400F0AFF9303262556D1E43
:10071000F9D5B3460122084302D000227F1C04E031
:100720002078302801D100227F1E002A099784D02A
:100730001DE0112D07DA00F097F9303262556D1C7B
:1007400050EA0102F5D1084302D00098C8B10EE08A
:100750000021681E05E0235C625C63542254401E45
:10076000491C8142F7DBAB46A81B401E09900020C4
:1007700004F80B000B98099AC0F80880C0E9002B18
:100780007AE711264FF0000857E72DE9F04F884629
:100790000446D21D22F0070191B0D1E90001CDE954
:1007A0000A0103F06CFC02460B98C00F01D02D200B
:1007B00007E02068810701D52B2002E0202101EA13
:1007C000C000032A099001D0072A05DB03464146F1
:1007D000204600F08FF90BE12078800601D5E06912
:1007E00000E00620B8F1650F814606D0B8F1660F2B
:1007F00018D0B8F1670F70D131E00020B9F1110FB6
:10080000009001DB112301E009F101030AAA01A90B
:100810000CA8FFF7E2FEDDE90C70002609F10105E6
:10082000834647E001204B4600904FF000470AAA5C
:1008300001A90CA8FFF7D1FEDDE90DB00C995D46CA
:10084000002610B909F101000D18B9EB050003D419
:10085000C0F1FF3609F10105A5EB09002BE0B9F164
:10086000010F01DA4FF001090020B9F1110F0090DA
:10087000484601DD112300E003460AAA01A90CA89D
:10088000FFF7ABFEDDE90C704D460026834620786D
:1008900000070AD4AB4500DA5D4601A8012D04DD4E
:1008A000411911F8011C302907D04F4502DA17F120
:1008B000040F04DA012082460FE06D1EEEE7002FE0
:1008C00002DCED1B3E4403E0781CA84200DD7D1CE9
:1008D000B81B00F1010A4FF000472078000703D44D
:1008E000AA4501DB4FF0FF3A0021B7F1004F0DF1AF
:1008F00043088DF8431024D002202B23002F01DA67
:100900007F422D230A21021EA0F1010000DC5FB10D
:1009100097FBF1FC97FBF1F201FB1C7C17460CF1F5
:10092000300C08F801CDEEE7A8F101000370218832
:10093000090501D5452100E06521A0F1010800F875
:10094000011C09980FA9A1EB0807FF1D00B10120A8
:10095000411901EBEA70A1693844081A401EA061F0
:100960002078C00602D42046AFF30080099828B151
:10097000D4E901219047206A401C20622078C006FB
:1009800022D52046AFF300801EE0002E04DBB345E5
:1009900002DD01A8805D00E03020D4E9012190470C
:1009A000206A401C2062761CAAF101005FEA000A5E
:1009B0000AD100F055F8C0680168405CD4E9012113
:1009C0009047206A401C2062281EA5F10105DCDC4E
:1009D00007E0D4E9012118F8010B9047206A401C78
:1009E0002062381EA7F10107F3DC2046AFF3008038
:1009F000032011B041E6000001694A1C0261087839
:100A0000704700B58FB0CDE901310021059105494E
:100A10007944CDE9031011466846FFF767FC0FB033
:100A200000BD0000E5FFFFFF0A6802F8010B0A6045
:100A3000704710B5436913B1AFF3008001E0FFF7D1
:100A4000EFFB012010BD127800F124010A70002292
:100A50004A700122EDE711684FF0FF32E9E700002C
:100A600000487047A411002030B5B0F10A024FEAE7
:100A7000900E71F100034EEA817EB0EB0E0061EB47
:100A800091014FEA101E4EEA017E10EB0E0041EB81
:100A900011114FEA102E4EEA016E10EB0E0041EBE1
:100AA00011214FEA104E4EEA014E10EB0E0041EBC1
:100AB0001141401841F100014FEAD00040EA417075
:100AC0004FEAD10110EB80054FEA810444EA9074AB
:100AD00044EB01046D1944EB0404521BA3414FF095
:100AE000000348BF0A3200D530BD401C41F100016F
:100AF00030BD00002DE9F0411F4604460326016881
:100B0000072A01F4006004DB08B116A505E016A56C
:100B100003E008B115A500E015A521F01000206044
:100B2000A069C01EA0610FB1401EA0612046AFF3B6
:100B300000804FB1D4E9012138469047206A401C1B
:100B40002062C01C206206E0206AFAE7D4E9012195
:100B500015F8010B9047761EF8D22046AFF30080BF
:100B6000BDE8F0814E414E006E616E00494E460078
:100B7000696E66002DE9F047814616468AB0354811
:100B800078440DC88DE80D0032487844801C03ACD1
:100B90000DC884E80D0041F69B300844372190FBD6
:100BA000F1F290FBF1F5A5F1800501FB12041B3C6D
:100BB00002D56442012000E00020DFF898A08046C2
:100BC0000027FA44AAF1BE0A0EE0E0070AD0324636
:100BD000684607EB470101230AEB810100F046FB61
:100BE0008DE8070064107F1C002CEED1194F7F4464
:100BF000AE3F19E0E80715D007EB04100DF1180A15
:100C000090E80E008AE80E00C068F04201D1981901
:100C100008903246012306A903A800F027FB03AB86
:100C200083E807006D10641C002DE3D14FF0010331
:100C300032466946B8F1000F03A802D000F001FB6C
:100C400001E000F013FBC9E90001C9F808200AB06F
:100C5000BDE8F0877C5000000048704784110020F8
:100C60007546FFF7F9FFAE4605006946534620F08A
:100C70000700854618B020B5FFF7AAFABDE8204066
:100C80004FF000064FF000074FF000084FF0000B48
:100C900021F00701AC46ACE8C009ACE8C009ACE8FB
:100CA000C009ACE8C0098D46704710B50446AFF3E3
:100CB00000802046BDE81040FFF775BA4FF0013CB8
:100CC00050F8042B51F8043B9A4221D1A2EB0C03BB
:100CD000934313EACC1317D150F8042B51F8043B7B
:100CE0009A4215D1A2EB0C03934313EACC130BD118
:100CF00050F8042B51F8043B9A4209D1A2EB0C03A3
:100D0000934313EACC13DBD04FF00000704700BFD1
:100D1000D01A01BAB1FA81F101F0180122FA01F0FA
:100D2000CB40C1F12001DBB2C0B2C01A2CFA01F3F2
:100D3000D11A914311EAC311E6D170470149182035
:100D4000ABBEFEE72600020070475FEA400C08BF1A
:100D500091F0000F4FEA8C234FEAC12243EA515130
:100D60004FEA1C5018BF00F5F0404FEA300018BFA2
:100D700041F000415FEA6C5C00F02980BCF1FF3F6C
:100D800008BF40F080407047130C06BF12044FF0BC
:100D9000100C4FF0000C130E04BF12020CF1080CE3
:100DA000130F04BF12010CF1040C930F04BF920047
:100DB0000CF1020CD30F04BF52000CF1010C1146D0
:100DC0004FF00002A0F11F00A0EB0C00704711F0E3
:100DD000004F08BF704731F000413FF4D5AF0B0C16
:100DE00006BF09044FF0100C4FF0000C0B0E04BFAF
:100DF00009020CF1080C0B0F04BF09010CF1040CE3
:100E00008B0F04BF89000CF1020CCB0F04BF49000B
:100E10000CF1010CCCF12003A0EB0C0022FA03F33F
:100E200002FA0CF241EA030100F10100704720F0E0
:100E30007F4C80EA030023F07F47ACEB070303F508
:100E40007C5300F0004003F1FF032DE980494FEA95
:100E5000154B09B44FEA144325EA0B4E24EA034824
:100E60000FF2042606EB132749083E785FEA3202A8
:100E700003FB0667C7F5000707FB06F64FEA543782
:100E80004FEAD64606F1020607FB066CCCF1005C81
:100E90004FEA1C472CEA074C07FB06F40CFB06F54F
:100EA00004EB15464FEA961634BF00204FF0004081
:100EB0004FEAD13706FB07FC4FEA1C4C0CFB0BF743
:100EC000D21B03FB0CF761EB07010CFB0EF7B0EB39
:100ED000074072EB17420CFB08F734BFA2EB074246
:100EE000B2EB074261EB17414FEA0C444FEA91071E
:100EF00006FB07FC4FEA1C4C0CFB0BF7B0EBC740A2
:100F000072EB573203FB0CF734BFA2EBC742B2EBD4
:100F1000C74261EB57310CFB0EF7B0EBC70072EB29
:100F200057720CFB08F734BFA2EBC702B2EBC70243
:100F300061EB5771039F4FEA816141EA921104EB23
:100F4000CC044FEAD1374FEA826206FB07FC42EA43
:100F500090124FEA80604FEA1C4C0CFB0BF7D21B3F
:100F600003FB0CF761EB07010CFB0EF7B0EB07403E
:100F700072EB17420CFB08F734BFA2EB0742B2EB4F
:100F8000074261EB17414FEA8C554FEA910704EB9A
:100F90009C2406FB07FC4FEA1C4C0CFB0BF7B0EB48
:100FA000C74072EB573203FB0CF734BFA2EBC742CA
:100FB000B2EBC74261EB57310CFB0EF7B0EBC70049
:100FC00072EB57720CFB08F734BFA2EBC702B2EB0F
:100FD000C70261EB577115EB4C254FEA816141EA7D
:100FE00092114FEA82624FEAD13742EA901206FB31
:100FF00007FC44F100044FEA80604FEA1C4C0CFBF4
:101000000BF7D21B03FB0CF761EB07010CFB0EF790
:10101000B0EB074072EB17420CFB08F734BFA2EBB2
:101020000742B2EB074261EB174115EB1C154FEA83
:10103000813141EA92414FEA823242EA90424FEADC
:1010400080304FEA0C7644F1000448EA03434EEA4C
:101050000B484FF0000EB2EB080C71EB030724BFF6
:10106000624639464EEB0E0E4FF0000B001852410F
:1010700049414BEB0B0BB2EB080C71EB03077BF117
:10108000000B24BF624639464EEB0E0E4FF0000BAC
:101090000018524149414BEB0B0BB2EB080C71EBC2
:1010A00003077BF1000B24BF624639464EEB0E0E60
:1010B00051EA020718BF46F0010616EB0E7655F10D
:1010C000000254F1000103D5BDE88901BDE80088A4
:1010D000BDE88901BDE80048B619524141EB010164
:1010E000A3F10103704780807F7E7D7C7B7A7978D5
:1010F000777676757473727171706F6E6E6D6C6CDD
:101100006B6A6A696868676666656464636362617E
:101110006160605F5F5E5E5D5D5C5C5B5B5A5A59FF
:10112000595858575756565555555454535352526B
:101130005251515050504F4F4F4E4E4D4D4D4C4CC3
:101140004C4B4B4B4A4A4A4949494848484747470C
:101150004746464645454544444444434343434249
:10116000424242414141002B9C4630D477002BD073
:101170001CB54FEA370703B44FF010004FF01001D1
:10118000BAF1000F06D0BCF1000FDCBF40F0080040
:1011900040F008014FF000000FBCBDE810400BF11B
:1011A000010BBBF1010F08BF5FEA170722BF12F165
:1011B000010211F101014FF0004143F1000300F081
:1011C000004043EA00007047F9D35708D0E746EAE9
:1011D000064613F1400F4FEA16461FDD13F1200FAC
:1011E000DFBF16430A46002120335B42BED0C3F165
:1011F000200746EA064602FA07F74FEA164646EA8D
:101200000706C3F1200722FA03F201FA07F721FAD1
:1012100003F14FF0000342EA0702A7E746EA02069D
:1012200046EA06464FEA164646EA0106BCBF46EACB
:101230000646360C4FF000034FF000024FF000015D
:1012400094E72DE9804C9A46934670B491E83800B3
:1012500007C831EA400C48BF34EA430C03D5FFF716
:10126000E6FDFFF780FFF0BCBDE8008C2DE9804C67
:101270009A46934670B491E8380007C810F0804F42
:1012800008BF13F0804F03D100F005F8FFF76BFFA4
:10129000F0BCBDE8008C20F07F4780EA030023F01B
:1012A0007F4C07EB0C03A3F57C5300F00040A3F147
:1012B000FE0392F0000F00F0B38095F0000F00F0F5
:1012C00077802DE901494FEA11404FEA144621EA9F
:1012D000004800FB06FC24EA064708FB06F607FB6D
:1012E00008F800FB07F718EB06484CEB164C4FEAE2
:1012F000124B18EB07484FEA15464CEB174022EA11
:101300000B4E0BFB06FC25EA06470EFB06F607FB19
:101310000EFE0BFB07F71EEB064E4CEB164C4FF088
:1013200000061EEB074E4CEB174B18EB0B0840F179
:10133000000018EB0E0B58EB000840F100008F1A6C
:101340004FF000013CBFC943661B14BFB5EB040C52
:1013500000213CBFC943F61B4FEA17444EEA8E0EEC
:1013600027EA04454FEA1C4704FB07622CEA074CB6
:1013700005FB07F70CFB05F604FB0CFC16EB074618
:1013800042EB174216EB0C4642EB1C421BEB0606E7
:1013900058EB0202414146EA9E0601D5BDE80189AB
:1013A000B619524141EB0101A3F10103BDE80189E6
:1013B0004FEA14454FEA114724EA054621EA074C53
:1013C00005FB07F406FB07F70CFB06F105FB0CFC1D
:1013D00011EB074144EB17444FEA124711EB0C4164
:1013E00044EB1C4422EA074C05FB07F206FB07F717
:1013F0000CFB06F605FB0CFC16EB074642EB17420E
:1014000016EB0C4642EB1C456A1854F1000148BF2C
:101410007047B619524141EB0101A3F10103704736
:1014200095F0000F37D04FEA11424FEA144721EAF6
:10143000024624EA074C02FB07F106FB07F70CFB08
:1014400006F402FB0CFC14EB074441EB17414FEA96
:10145000154714EB0C4441EB1C4125EA074C02FBF9
:1014600007F506FB07F70CFB06F602FB0CFC16EB78
:10147000074645EB174516EB0C4645EB1C42121987
:1014800051F1000148BF7047B619524141EB0101CB
:10149000A3F1010370474FEA14454FEA114724EACC
:1014A000054621EA074C05FB07F106FB07F70CFB95
:1014B00006F24FF0000605FB0CFC12EB074241EB75
:1014C000174112EB0C4251EB1C4148BF7047921878
:1014D00041EB0101A3F101037047000070B5044620
:1014E00000688168C943C90717D1816821F00101EB
:1014F000816000F047FE05460AE000BF00F042FEB2
:10150000401B022804D920688068C043C00706D069
:1015100020688068C043C007F0D0002070BDA06A7A
:1015200040F01000A062E06A40F00100E06201209B
:1015300070BD10B50146406A826A12F0500F05D0A6
:10154000006A026BBDE8104008461047816A41F40A
:101550000071816201688968C1F3424107290CD199
:10156000017B51B9816A21F480718162816AC90469
:1015700003D4816A41F00101816200F05BF910BD82
:1015800010B5406A816A41F040018162C16A41F050
:101590000401C16200F075F910BD10B5406A00F099
:1015A0006FF910BDF8B50026044600960068816802
:1015B000C943C9072DD0816841F0010181601648F7
:1015C00016490068B0FBF1F000E0401E00900028D2
:1015D000FBD100F0D7FD054616E000BF00F0D2FDBC
:1015E000401B022810D920688068C043C0070BD078
:1015F000A06A40F01000A062E06A40F00100E062E2
:1016000084F824600120F8BD20688068C043C007CA
:10161000E4D10020F8BD00003C00002040420F0053
:10162000FEE70000014800F095BB00005C100020C0
:1016300030B590F840500124AC40C56B6C60046834
:1016400063604368102B036803D099600068C26030
:1016500030BD9A600068C16030BD704772B6FEE769
:10166000F8B500250446009590F8240001280BD019
:10167000012084F824002046FFF730FF2046FFF7C2
:1016800091FF060002D050E00220F8BDA06A20F4CD
:10169000885040F00200A062022000F09BFF254924
:1016A0000968B1FBF0F0400000E0401E0090002807
:1016B000FBD12068816841F00801816000F062FD83
:1016C000074608E000F05EFDC01B0A2803D9206829
:1016D0008068000715D4206880680007F2D420686D
:1016E000816841F00401816000F04CFD074612E082
:1016F00000F048FDC01B0A280DD92068806840070B
:1017000009D5A06A20F0020040F01000A06284F821
:1017100024500120F8BD206880684007E8D4A06A02
:1017200020F0020040F00100A06284F8245030460E
:10173000F8BD00003C000020F8B50024009490F8AB
:1017400024202546012A12D0012280F824204A684C
:101750001F23072A0DD20668776B521E02EB820206
:1017600093409F430B6893401F43776319E0022027
:10177000F8BD06680D2A0AD2376BD21F02EB82022F
:1017800093409F430B6893401F43376309E0F76A18
:101790000D3A02EB820293409F430B6893401F4334
:1017A000F7620A68072306680A2A0AD3F7680A3A22
:1017B00002EB420293409F438B6893401F43F760C4
:1017C00008E0376902EB420293409F438B689340E5
:1017D0001F4337610A68102A01D0112A20D1124B09
:1017E00002689A4217D193681B0219D4936843F494
:1017F000000393600968102912D10C490C4A09684A
:10180000B1FBF2F101EB8101490000E0491E0091BA
:101810000029FBD104E0816A41F0200181620124AA
:1018200080F824502046F8BD002401403C000020F0
:1018300040420F0030B50F4A4FF47A74A2F1140100
:101840001388B3F5487F07D94888A04204D20A4DCF
:1018500025F81030401C48805288B2F5967F07D991
:101860008888A04204D2054B23F81020401C8880B1
:1018700030BD0000140000208A0000205A0800201B
:10188000704770472DE9F0414FF0000704003D46D6
:101890007ED0A06A002628B9E66284F8246020463B
:1018A00000F07EF82046FFF719FEA16AC90600D4B1
:1018B00020B1A06A40F01000A06269E0A16A21F4A2
:1018C000885141F00201A1626268E169237B0A4309
:1018D00047EA43010A43A1684FF48077B94209D02F
:1018E000012907D05FF0000194F814C0BCF1010F8A
:1018F00002D00AE03946F7E7F3B1A36A43F02003C8
:10190000A362E36A43F00103E3622368D3F804C0EF
:101910002CF4694C4CEA010CC3F804C021688B68B4
:10192000DFF870C003EA0C0313438B60A168B9426F
:101930000BD0012909D00CE0DFF85CC0A3690CEBE7
:1019400043330B4343F40061DFE7218A0D05A5F51E
:1019500080152168CB6A23F470032B43CB62216886
:1019600089680E4B1940914208D1E662A16A21F0C4
:10197000020141F00101A162BDE8F081A06A20F0FE
:10198000020040F01000A062E06A40F00100E06256
:101990000120F1E7FDF7E1FF00E0FFFFFE0E1FFF72
:1019A00070B586B000250646009501950295039511
:1019B0000068194988422DD11849886940F400709F
:1019C0008861886900F400700490886940F008001C
:1019D00088618869694600F008000490032000903F
:1019E00001900F4800F0D8FA0F4C0E48C4E90005EA
:1019F0008020C4E902504000206180006061202006
:101A0000C4E90605204600F04FFA08B1FFF726FEAC
:101A10003462666206B070BD0024014000100240CE
:101A2000000C0140080002405C1000202DE9F84342
:101A300000270D460446009700F0A4FB804620686E
:101A40008168C90508D5A06A40F02000A06284F82A
:101A500024700120BDE8F8834168C90503D4C06A39
:101A600010F4700F2AD0022000F0B4FD3B49096841
:101A7000B1FBF0F62068036939490B424FEA610176
:101A80004FEAA1121FD1C3684FEA611C13EA0C0F81
:101A900019D103690B4225D1C068104222D114200C
:101AA00023E0681C0AD02DB100F06CFBA0EB08000D
:101AB000A84203D920680068800725D520680068FF
:101AC0008007EED52DE003690B4202D1C1681142B7
:101AD00006D0026923490A4206D1C068084203D1F0
:101AE000542002E0292000E0FC204643009816E044
:101AF000681C11D02DB100F045FBA0EB0800A842F6
:101B00000AD90098B04207D2A06A40F00400A0624F
:101B100084F8247003209DE70098401C0090B04298
:101B2000E6D321686FF012000860A06A40F40070EC
:101B3000A06220688068C0F3424007280CD1207B57
:101B400050B9A06A20F48070A062A06AC00403D4D7
:101B5000A06A40F00100A06200207BE73C0000206A
:101B600024499224499224002DE9F04789460446ED
:101B70003B4900683B4F0E1D9046884201D0B84259
:101B800007D1306810F4702F03D001252846BDE836
:101B9000F08794F8240001280CD0012084F8240058
:101BA0002046FFF7FFFC05004FF0000004D084F84A
:101BB0002400EBE70220EAE7A16A40F601629143C4
:101BC00041F48071A1622168B94218D1326812F4DF
:101BD000702F14D0A16A41F48011A16231684905C7
:101BE00005D5A16A21F4005141F48051A162A16A96
:101BF000C9040AD5E16A21F00601E16206E0A26AA1
:101C000022F48012A2624968E9E7E06284F82400C5
:101C1000216A15488862216A1448C862216A1448FA
:101C2000086321686FF0020008602068816841F451
:101C300080718160216843464A464C31206A00F039
:101C400061F920688168C1F342410729816803D0A6
:101C500041F48011816099E741F4A001FAE70000A6
:101C60000024014000280140331500089B1500089E
:101C70008115000810B590F821100022022905D026
:101C80000421816380F82020012010BD01680B68C9
:101C900023F00E030B6001680B6823F001030B6057
:101CA00090F84030C46B012101FA03F3636080F8BF
:101CB000211080F82020104610BD000010B590F8CB
:101CC00021100024022903D00421816301243DE076
:101CD00001680A6822F00E020A6001680A6822F0B0
:101CE00001020A601A4A0168914201D1012121E0F2
:101CF000174A1432914201D110211BE0144A2832B4
:101D0000914201D1891515E0114A3C32914201D12D
:101D100089140FE00E4A5032914202D14FF48031C3
:101D200008E00B4A6432914202D14FF4801101E085
:101D30004FF08071064A083A5160012180F8211065
:101D4000002180F82010416B01B18847204610BD6A
:101D5000080002402DE9F05FC16B0C6801680B6858
:101D6000D0F840C0042202FA0CF2494DDFF824A159
:101D7000494E4A4FDFF828B1DFF828E122422CD043
:101D80005A072AD50A68920603D40A6822F0040288
:101D90000A600168A94201D1042219E0514501D12C
:101DA000402215E0B14202D14FF4806210E0B94206
:101DB00002D14FF480420BE0594502D14FF480220A
:101DC00006E0714502D14FF4800201E04FF08062DD
:101DD0002F4908394A60C16A3BE04FF0020808FA0F
:101DE0000CF818EA040F4FF000094FF0010235D04B
:101DF0005FEA837832D50B689B0605D40B6823F025
:101E00000A030B6080F821200168A94201D1022257
:101E100019E0514501D1202215E0B14202D14FF421
:101E2000007210E0B94202D14FF400520BE0594564
:101E300002D14FF4003206E0714502D14FF4001296
:101E400001E04FF00072124908394A6080F8209092
:101E5000816A00291AD0BDE8F05F0847082505FA15
:101E60000CF5254212D01B0710D50B6823F00E038A
:101E70000B6090F84010C36B02FA01F15960826365
:101E800080F8212080F82090016BE2E7BDE8F09F08
:101E9000080002401C0002403000024044000240A2
:101EA000580002406C00024030B528B308C81349FE
:101EB00014221944B1FBF2F18900C1631049816316
:101EC000022141771A6843F6F0718A43D0E9001481
:101ED0002143D0E902452C4321430469214344694D
:101EE0002143846921431143196000214163012288
:101EF00042770177084630BD012030BDF8FFFDBFB5
:101F00000000024070B5044690F82000002501282A
:101F10000CD0012084F8200094F821600020012ECC
:101F200006D084F820000225284670BD022070BD2E
:101F3000022684F82160A0632068066826F0010666
:101F400006602046FFF774FBE06A002820680168FD
:101F500002D041F00E0106E021F00401016020688A
:101F6000016841F00A0101602068016841F0010147
:101F70000160D9E770B5044600F004F90546601C1D
:101F800002D004480078044400F0FCF8401BA04252
:101F9000FAD370BD300000202DE9F84FDFF8B8917A
:101FA0000024A9F1040B23460F2709F1040AABF121
:101FB000040EC9E00125A5402A40AA427DD1674E02
:101FC000D1F804C0ACEB0608B44532D014DCBCF147
:101FD000030F3AD009DCBCF1000F2AD0BCF1010F8D
:101FE0001CD0BCF1020F31D11DE0BCF1110F17D094
:101FF000BCF1120F2AD119E0B8F5881F19D006DC00
:10200000B8F5803F15D0B8F5801F1FD111E0B8F5A5
:10201000001F0ED0B8F5041F18D10AE0CB6815E0F8
:10202000CB681B1D12E0CB6808330FE0CB680C3384
:102030000CE08B682BB1012B4FF0080303D04561F6
:1020400004E0042302E0056100E00023FF2A01D838
:10205000064601E000F104064FEA840501D9A5F126
:102060002005D6F8008007FA05FC28EA0C0803FAD8
:1020700005F548EA0508C6F800804D68ED0062D510
:10208000374DAE6946F00106AE61AD6924F0030636
:1020900005F001050095334D06EB050CDCF8085002
:1020A000A607360F07FA06F825EA0805DFF8B88014
:1020B000404503D14FF0000817E044E0DFF8AC8062
:1020C000404502D14FF001080FE0DFF8A480404501
:1020D00002D14FF0020808E0DFF89880404502D1B5
:1020E0004FF0030801E04FF0040808FA06F848EA48
:1020F0000508CCF808804D68D9F80060ED024D461F
:1021000001D5164300E096432E604D68DAF8006072
:10211000AD02554601D5164300E096432E604D684A
:10212000DBF80060AD035D4601D5164300E0964341
:102130002E604D68DEF80060ED03754601D516434C
:1021400000E096432E60641C0D682A46E5407FF44B
:1021500031AFBDE8F88F0000080401400000111005
:10216000001002400000014000080140000C014046
:1021700000100140001401408068084000D0012098
:102180007047000001488068704700003000002060
:1021900070B5040025D094F83D00002520B984F8DE
:1021A0003C50204600F050F9242084F83D0020687F
:1021B000016821F0010101602068016841F40041DB
:1021C00001602068016821F40041016000F060FBBB
:1021D0004D4A6168914201D84C4900E04C4988421F
:1021E00001D2012070BD4B492368B0FBF1F15E685C
:1021F00026F03F060E435E606368934206D94FF4B3
:10220000967359434FF47A73B1FBF3F12368491C79
:102210001E6A26F03F06314319626168914210D868
:102220004900401EB0FBF1F2521CC2F30B02042A1B
:1022300001D2042022E0B0FBF1F0401CC0F30B00FF
:102240001CE0A268F2B301EBC10303EB0116431ECD
:10225000B3FBF6F35B1C43F480431B0549D092B3F8
:1022600001EBC10202EB0111401EB0FBF1F0401C7A
:10227000C0F30B0040F4804040F400402168CA697C
:102280004CF6FF739A431043C861D4E90710014329
:102290002068026822F0C00211430160D4E9030102
:1022A00001432068826848F2FF339A4311438160FA
:1022B000D4E9050108432168CA6822F0FF021043EF
:1022C000C86001E00EE016E02068016841F00101FD
:1022D00001602564202084F83D00256384F83E5089
:1022E000002070BD01EB4106431EB3FBF6F35B1CFF
:1022F000B3E70120C2E701EB4101401EB0FBF1F062
:10230000401CC0F30B00B7E7A086010080841E00CC
:1023100000093D0040420F002DE9FF4F83B09A466F
:10232000DDE9119793460446DDF84080FFF72AFF68
:10233000054694F83D0020287FD119230122404909
:102340002046009501F036F9002876D194F83C003B
:10235000012872D0012084F83C0020680168C90778
:1023600003D1016841F0010101602068016821F496
:1023700000610160212084F83D00402084F83E0087
:1023800000262664C4F82480A4F82A90608D208555
:102390002C48E062CDE9007553465A462046049920
:1023A00001F088F870B930E02A463946204601F03D
:1023B000A7F958B1206C042804D12068016841F4C1
:1023C00000710160012007B0BDE8F08F606A2168EC
:1023D00000780861606A401C6062218D491E89B2E4
:1023E0002185628D521E628522685369DB435B073B
:1023F0000BD469B100781061606A401C6062208D66
:10240000401E2085608D401E6085208D0028CBD128
:102410002A463946204601F0A1F80028CAD154F8CE
:102420003D0B016841F400710160202004F81E0991
:10243000E67766770020C6E7FFE70220C3E70000E3
:10244000020010000000FFFF10B586B000210091CF
:1024500001910291039100680F4988421AD10F4CF3
:10246000A06940F00800A061A069694600F008007A
:102470000490C0200090122001900320039008488F
:10248000FFF78AFDE06940F40010E061E06900F4C4
:102490000010049006B010BD00540040001002402F
:1024A000000C014002488168027811448160704745
:1024B00030000020074810B5016841F010010160AC
:1024C000032000F075F80F2000F006F800F024F863
:1024D000002010BD0020024070B50D4D04464FF4A1
:1024E0007A712878B1FBF0F00A490968B1FBF0F085
:1024F00000F0A4FB48B9102C07D200222146501E40
:1025000000F036F800206C6070BD012070BD000046
:10251000300000203C0000200C4808B5816941F0E3
:1025200001018161816901F001010091C16941F0FE
:102530008051C161C06900F080500090044841683A
:1025400021F0E06141F00071416008BD00100240DF
:1025500000000140002809DB00F01F02012191402A
:102560004009800000F1E020C0F800117047000031
:10257000F0B40E4B1B680C46C3F30223C3F10705EE
:10258000042D00D90425191D072901D2002300E0DC
:10259000DB1E012606FA05F1491E214099409E40A6
:1025A000761E16403143F0BC01F07DBD0CED00E01D
:1025B000064900F0070208684FF6FF03184040EA9A
:1025C0000220034A10430860704700000CED00E051
:1025D0000000FA0510B501460020234C012922D045
:1025E000022939D010291DD161682268D20119D57C
:1025F0001E48C1F38342C903805C0AD561681B4A47
:10260000C1F34041921E515C194AB2FBF1F14843BB
:1026100001E0184948436168490203D4400003219E
:10262000B0FBF1F010BD226AC2F30121012903D1F0
:10263000920701D5C80310BD022905D1626A92072D
:1026400002D549F6404010BD0329FCD12168890319
:10265000F9D54FF2244010BD00F02AF96168C1F3AA
:102660008131491C4900DBE7001002405253000849
:1026700000127A0000093D002DE9F8430546007874
:10268000354CC00754D0E0690026C00008D4E0698A
:1026900040F08050E061E069012600F08050009039
:1026A0002E480168C90512D40168804641F4807142
:1026B0000160FFF767FD074605E000BFFFF762FD19
:1026C000C01B642823D8D8F80000C005F6D5206ABE
:1026D00010F4407021D0A98801F4407181421CD0CF
:1026E000206A1F49012220F440700A6000220A601B
:1026F0002062C00711D0FFF745FD074641F2883838
:1027000008E000BFFFF73EFDC11B414502D9032091
:10271000BDE8F883206A8007F4D5206A696820F450
:102720004070084320621EB1E06920F08050E061F3
:102730002878800705D56068A96820F440400843E0
:1027400060602878C00605D56068E96820F48000DC
:10275000084360600020DBE700100240007000408A
:10276000400442422DE9F0470F46050061D0434E38
:10277000306800F00700B84209D2306820F0070046
:1027800038433060306800F00700B84251D1286803
:102790003B4C810712D5400703D5606840F4E060E8
:1027A00060602878000703D5606840F4605060607E
:1027B0006068A96820F0F000084360602878C007CE
:1027C00028D06868012810D02168022810D0890715
:1027D00000292EDA616821F0030101436160FFF7EF
:1027E000D1FC804641F288390DE021688903EFE78A
:1027F0008901EDE7FFF7C6FCA0EB0801494502D9C6
:102800000320BDE8F0876068696800F00C00B0EB59
:10281000810FEFD1306800F00700B8420BD9306863
:1028200020F0070038433060306800F00700B842FD
:1028300001D00120E5E72878400705D56068E96800
:1028400020F4E060084360602878000706D56068DF
:10285000296920F4605040EAC100606000F038F857
:102860006168084AC1F30311515CC8400649086019
:1028700006480068FFF730FE0020C2E70020024053
:1028800000100240625300083C0000203400002089
:102890000448054900684968044AC1F30221515CB3
:1028A000C84070473C0000200010024072530008EE
:1028B0000448054900684968044AC1F3C221515CD3
:1028C000C84070473C0000200010024072530008CE
:1028D0000E4A51680E4801F00C03042B11D0082B4E
:1028E0000FD10C48C1F38343C903C05C0AD55168BA
:1028F000084AC1F34041921E515C054A5043B0FB67
:10290000F1F070470449484370470000001002404E
:1029100000127A004053000800093D002DE9F84FED
:10292000040070D02078C04DC00749D06868C0F35B
:102930008100012807D06868C0F38100022809D10E
:102940006868C00306D52868800339D56068002808
:10295000E7D035E06068B0F5803F0BD010B1B0F53E
:10296000A02F11D0286820F480302860286820F437
:10297000802002E0286840F480302860606890B1D0
:10298000FFF700FC06460AE0286840F48020286033
:10299000F0E700BFFFF7F6FB801B642873D82868B8
:1029A0008003F7D50CE0FFF7EDFB064605E000BF1E
:1029B000FFF7E8FB801B6428F0D828688003F7D471
:1029C00020789A4E80074FF001094FF0000839D562
:1029D000686810F00C0F07D06868C0F38100022807
:1029E00009D16868C00306D42868800714D5206917
:1029F000012808D110E02069B0B1C6F80090FFF7B7
:102A0000C1FB074605E00AE1FFF7BCFBC01B02283B
:102A1000C4D828688007F7D52868616920F0F800D5
:102A200040EAC10028600DE0C6F80080FFF7AAFB6D
:102A3000074604E0FFF7A6FBC01B022823D828683E
:102A40008007F7D4207800072CD57948A169D9B13F
:102A5000C0F80090FFF796FB074604E0FFF792FBF3
:102A6000C01B02280FD8686A8007F7D571484FF459
:102A7000FA510068B0FBF1F0009000BF0098411ED1
:102A80000091FAD20EE080E0C0F80080FFF77AFBF8
:102A9000074604E0FFF776FBC01B022875D8686A7A
:102AA0008007F7D42078400760D5E8690027C00088
:102AB00008D4E86940F08050E861E869012700F037
:102AC000805000905C480168C90513D401688346B2
:102AD00041F480710160FFF755FB824606E000BFBC
:102AE000FFF750FBA0EB0A0064284ED8DBF800008B
:102AF000C005F5D5E06801280AD008B1052813D033
:102B0000286A20F001002862286A20F0040002E010
:102B1000286A40F001002862E06841F2883B98B1E1
:102B2000FFF730FB82460BE0286A40F00400286281
:102B3000EEE700BFFFF726FBA0EB0A0159455AD884
:102B4000286A8007F6D50CE0FFF71CFB824605E0FB
:102B5000FFF718FBA0EB0A0159454CD8286A8007FB
:102B6000F6D41FB1E86920F08050E861E06988B3CD
:102B70006968C1F38101022944D00228C6F8608047
:102B800004D0FFF7FFFA044638E034E0FFF7FAFA22
:102B9000074604E0FFF7F6FAC01B02282BD8286886
:102BA0008001F7D4206AB0F5803F05D16868A1683C
:102BB00020F4003008436860D4E9080108436968DC
:102BC00021F4741108436860C6F86090FFF7DAFAE0
:102BD000044606E025E000BFFFF7D4FA001B0228F8
:102BE00009D828688001F7D51BE000BFFFF7CAFAB3
:102BF000001B022802D90320BDE8F88F2868800155
:102C0000F4D40EE00128F7D06868226A00F480311D
:102C1000914204D1616A00F47010884201D0012011
:102C2000EAE70020E8E7000000100240000042420E
:102C3000800442423C0000200070004010B5401E5D
:102C4000B0F1807F01D3012010BD4FF0E02460611E
:102C50000F21601701F027FA0020A06107202061F2
:102C6000002010BD10B590F83C20012A22D001228E
:102C700080F83C20CA688C6822F4407222434C6879
:102C800022F4806222430C6822F4006222430C6921
:102C900022F4805222434C6922F400522243C96933
:102CA000002322F480420A4301684A6480F83C30E1
:102CB000002010BD022010BD70B590F83C20012A04
:102CC00026D0012480F83C40022280F83D20036891
:102CD0005A689D6822F070060A6832435A600D4BAC
:102CE00002689A4208D0B2F1804F05D00A4B9A424E
:102CF00002D00A4B9A4204D1496825F08003194357
:102D0000916080F83D40002180F83C10084670BD7D
:102D1000022070BD002C014000040040000800406B
:102D200010B5040003D094F83D0010B107E0012075
:102D300010BD002084F83C00204600F01FF802205F
:102D400084F83D00211D206800F04EFF012084F82A
:102D5000460084F83E0084F83F0084F8400084F880
:102D6000410084F8420084F8430084F8440084F869
:102D7000450084F83D00002010BD000008B5006843
:102D80000649884208D10648816941F400618161A1
:102D9000806900F40060009008BD0000002C014034
:102DA0000010024070B5044690F83C000025012850
:102DB00017D0012684F83C60022084F83D0020688A
:102DC000826822F0770222F47F42826008685028ED
:102DD00038D00DDC20284FD005DC90B3102811D15D
:102DE0004AE0022070BD302846D040280AD13BE09E
:102DF00060282FD070280DD0B0F5805F03D0B0F5DB
:102E0000005F12D0012584F83D60002084F83C006A
:102E1000284670BDCB68D1E90121206800F027FF6A
:102E20002068816841F0770109E0CB68D1E9012190
:102E3000206800F01CFF2068816841F480418160B7
:102E4000E1E719E0CA684968206800F0C5FF502131
:102E5000206806E0CA684968206800F0CEFF60215B
:102E6000206800F00EFFCEE7CA684968206800F0CD
:102E7000B3FF40212068F4E7226801461046F0E7DE
:102E800000B585B000210091019102910391006885
:102E90000B49884212D10B48816941F004018161DC
:102EA0008069694600F0040004904FF4807000903F
:102EB0000220019003900448FFF76EF805B000BDB2
:102EC000002C0140001002400008014070B504468B
:102ED00090F83C0000260D4601280FD0012084F810
:102EE0003C006AB1042A1DD0082A2FD00C2A3FD0FA
:102EF0000126002084F83C00304670BD022070BDE1
:102F0000206800F0C7FE2068816941F008018161F6
:102F10002068816921F004018161206881692A6942
:102F2000114311E0206800F0DDFE2068816941F462
:102F3000006181612068816921F48061816120687C
:102F400081692A6941EA02218161D2E7206800F0A3
:102F5000F5FE2068C16941F00801C1612068C169BE
:102F600021F00401C1612068C1692A69114311E09F
:102F7000206800F00FFF2068C16941F40061C16161
:102F80002068C16921F48061C1612068C1692A6932
:102F900041EA0221C161ACE710B5040003D094F806
:102FA0003D0010B107E0012010BD002084F83C0076
:102FB000204600F01EF8022084F83D00211D206804
:102FC00000F012FE012084F8460084F83E0084F8E8
:102FD0003F0084F8400084F8410084F8420084F8FF
:102FE000430084F8440084F8450084F83D00002044
:102FF00010BD704710B50446022249B104290ED015
:10300000082913D094F84100012816D0012010BDE2
:1030100094F83E000128F9D184F83E200FE094F89E
:103020003F000128F2D184F83F2008E094F84000E6
:103030000128EBD184F8402001E084F841200122EE
:10304000206800F007FE0F492068884203D1426CD7
:1030500042F4004242642068884208D0B0F1804FB8
:1030600005D00949884202D00849884204D18168C4
:1030700001F00701062903D0016841F00101016058
:10308000002010BD002C014000040040000800405A
:1030900070477047F8B5016804460868CA684B690C
:1030A00010F00F0F4FF0000559D003F0010602F4A5
:1030B0009077374365D0C10705D0D10503D5616C42
:1030C00041F001016164410705D5D90703D0616C66
:1030D00041F002016164810705D5D90703D0616C15
:1030E00041F004016164010707D502F0200131437A
:1030F00003D0616C41F008016164616C00293AD031
:10310000800604D5900602D5204600F0B7FE206860
:103110004069616CC0F38010090700D460B3204699
:1031200000F085FE20684069400621D520681430F3
:1031300050E8001F21F0400140E80012002AF5D1BC
:10314000E06BA8B16D494163E06BFEF7B7FD002865
:1031500011D0E06B416B01B0BDE8F0400847830639
:103160000FD593060DD52046BDE8F84000F086BE89
:103170002046FFF78EFFF8BD2046FFF78AFF656403
:10318000F8BD266B2023012E7CD1C6067AD5D60643
:1031900078D508684868009048694FF002064006F4
:1031A00040D5E16B086840680004000CE8D0A28DAF
:1031B0008242E5D9E085886920282DD020680C302E
:1031C00050E8001F21F4807140E80012002AF5D178
:1031D0002068143050E8001F21F0010140E800127F
:1031E000002AF5D12068143050E8001F21F040017A
:1031F00040E80012002AF5D184F8423025632068A7
:103200000C3050E8001F21F0100140E80012002AA5
:10321000F5D1E06BFEF72EFD6663A08DE18D401ABF
:1032200081B22AE0A08DE18D401A81B2E08D0028A4
:10323000A6D00029A4D022680C3252E8000F20F456
:10324000907042E80007002FF5D12068143050E854
:10325000002F22F0010240E80027002FF5D184F86A
:103260004230256320680C3050E8002F22F0100215
:1032700040E80023002BF5D166632046FFF708FFE6
:10328000F8BDFFE705062BD5150629D594F84100B2
:103290002128F5D1A068B0F5805F01D12069B0B1D7
:1032A000206A411C2162216800784860E08C401E41
:1032B0000004000CE084E3D12068C16821F08001A3
:1032C000C1602068C16841F04001C160D8E7206A50
:1032D0000088C0F308004860206A801C2062E5E78F
:1032E0004006CDD55006CBD5CA68204622F0400214
:1032F000CA6084F8413000F0C3F8C1E71F3E0008FF
:1033000070B5040004D094F84100002510B106E027
:10331000012070BD84F84050204600F023F824209E
:1033200084F841002068C16821F40051C160204642
:1033300000F006FE2068016921F4904101612068D7
:10334000416921F02A0141612068C16841F40051BE
:10335000C1606564202084F8410084F84200656300
:10336000002070BD30B585B0002400940194029413
:1033700003940068184988422CD11848816941F4A7
:1033800080418161816901F480410491816941F04A
:10339000040181618069124D00F0040004904FF433
:1033A0000070009002200190032003906946284697
:1033B000FEF7F2FD2815CDE900046946284602947F
:1033C000FEF7EAFD002211462520FFF7D1F825205F
:1033D000FFF7C0F805B030BD0038014000100240D2
:1033E0000008014070472DE9F843044690F8410079
:1033F0001F4616460D46202802D00220BDE8F8835D
:103400007DB176B100206064212084F84100FEF790
:10341000B9FEA6848046E684A068B0F5805F02D03D
:1034200003E00120EAE7206910B12E4600250EE0F6
:1034300000260CE08021204600F0DEFDA0B9AEB1F0
:1034400016F8010B21684860E08C401EE084E08C97
:1034500043464FF0000200970028EBD14FF04001A7
:10346000204600F0C9FD30B10320C7E735F8020B54
:10347000C0F30800E6E7202084F841000020BDE703
:103480007047FEE701684A69D24352050FD46FF4D2
:1034900080624A61002140F8301F2022427381730C
:1034A000026942F0040202610173012070470020AA
:1034B000704700002DE9F843044600680D46DDE939
:1034C000089701689846164641F4807101604B46A2
:1034D00000224FF001112046009700F06BF848B130
:1034E00020680068C00502D54FF4007020640320F6
:1034F000BDE8F883216805F0FE0008613B464A46B6
:103500001549204600F09EF888B920684169806915
:1035100000903A464946204600F0F2F848B1206C47
:10352000042804D12068016841F400710160012081
:10353000DEE7F5B2B8F1010F09D02168300A086161
:103540003A464946204600F0DBF80028E7D12068DB
:1035500005610020CCE700000200010070B51646AE
:103560000D4604461EE02046FFF78CFF08B10120FF
:1035700070BD681C16D0FEF705FE801BA84200D85F
:1035800085B920684069C04340070BD5002044F846
:10359000300F20216173A073216941F02001216166
:1035A0002073E4E720684069C0434007DBD4002073
:1035B00070BD00002DE9F047984617460D460446B9
:1035C000C1F30746DDF820902AE000BFB8F1FF3FC5
:1035D00026D0FEF7D7FDA0EB0901414502D8B8F18E
:1035E000000F1DD12068012E16D0806925EA000049
:1035F0000004000C12D00020B84211D1002044F881
:10360000300F20216173A073216941F020012161F5
:1036100020730120BDE8F0874069E7E70120EBE770
:103620002068012E0AD0806925EA00000004000C01
:1036300006D00020B842C9D00020EBE74069F3E78C
:103640000120F7E72DE9F047984616460D46044657
:103650004FF000094FF0200AC1F3074723E020682C
:103660004069C043400515D42068016841F40071E9
:10367000016021686FF480604861C4F8309084F87C
:103680003DA084F83E90216C41F00401216484F84F
:103690003C9021E0701C06D0FEF774FDA0EB080002
:1036A000B04203D816B1012F1FD021E02068012FAE
:1036B00015D0806925EA00000004000C18D000BF76
:1036C00044F8309F84F80DA084F80E90216941F0F1
:1036D0002001216184F80C900120BDE8F087406949
:1036E00025EA00000004000CEAD12068406901E0EE
:1036F0002068806925EA00000004000CAFD1ECE7E7
:1037000070B516460D4604461EE02046FFF7BAFE89
:1037100008B1012070BD681C16D0FEF733FD801B78
:10372000A84200D885B920684069C04300060BD57F
:10373000002044F8300F20216173A073216941F00B
:10374000200121612073E4E720684069C04300063E
:10375000DBD4002070BD00003EB500211748009169
:103760000191154A0291026092158260012404734E
:10377000017502254FF460220561C2614160FEF7C8
:1037800081F808B1FDF76AFF0820CDE900040620A2
:10379000029069460948FDF7CFFF08B1FDF75EFFCB
:1037A0000920CDE9000569460448FDF7C5FF00285A
:1037B00001D0FDF753FF3EBD002401402C10002036
:1037C000094808B5416941F00101416140690022A1
:1037D00000F00100009011460B20FEF7C9FEBDE885
:1037E00008400B20FEF7B6BE0010024010B586B0B0
:1037F00000241A48019402940394816941F0100155
:103800008161816901F010010491816941F0200119
:103810008161816901F020010491816941F0040115
:103820008161816901F004010491816941F008011D
:1038300081618069694600F008000490FF200090D3
:103840000748FEF7A9FB4FF44070CDE90004694634
:1038500004480294FEF7A0FB06B010BD0010024021
:1038600000080140000C01400D4810B50B490160F3
:103870000C49416000214FF480428160C0E903128D
:1038800041618161C1610162FEF782FC002803D0C1
:10389000BDE81040FDF7E2BE10BD0000005400403E
:1038A000A0100020A086010010B596B000240F944F
:1038B00010941194129413941C2108A81494FCF7EA
:1038C00008FE20216846FCF704FE294827490160CC
:1038D0001121C0E901141321C0E90314446184617A
:1038E000FFF71EFA08B1FDF7B9FE4FF480500F90B4
:1038F0000FA91F48FFF756FA08B1FDF7AFFE1C48A5
:10390000FFF74AFB08B1FDF7A9FE139413A9184865
:103910001494FFF7D1F908B1FDF7A0FE70200890CC
:103920000A20CDE909040420CDE90B400D940022C2
:1039300008A90F480E94FFF7C9FA08B1FDF78EFEEB
:1039400000944FF40050CDE9044002940194039494
:10395000694607480794FFF785F908B1FDF77EFE31
:103960000348FFF78DFA16B010BD0000002C01408F
:10397000F41000200C4810B50A4901604FF41641BC
:103980004160002181600C22C160C0E904128161A4
:10399000C161FFF7B5FC002803D0BDE81040FDF77A
:1039A0005DBE10BD003801403C110020FEE7FEE77F
:1039B00070B5002404F1B000C0B200F0AFF80020F0
:1039C00000F0ACF8102000F0A9F80025002000F06D
:1039D000B7F86D1CEDB2802DF8D3641CE4B2082C4E
:1039E000E8D370BD70B5C820FEF7C4FA044D0024BA
:1039F000285D00F093F8641CE4B2172CF8D370BD76
:103A00004000002010B50446B031C8B200F086F87E
:103A1000102040EA141000F081F804F00F00BDE817
:103A2000104000F07BB800002DE9F047203A002458
:103A3000089E0F468146D5B27F2803D900208F1CEF
:103A40008146FFB2102B394612D0FFF7DBFF1B492E
:103A500005EB450001EB4005285D0EB1C043C0B247
:103A600000F06EF8641CE4B2062CF5D3BDE8F087D4
:103A7000FFF7C8FFDFF8488004EB051118F80100D4
:103A80000EB1C043C0B200F05BF8641CE4B2082C75
:103A9000F2D37F1CF9B24846FFF7B4FF0024474633
:103AA00004EB05103844007A0EB1C043C0B200F0F8
:103AB00047F8641CE4B2082CF2D3D7E77A53000825
:103AC000A25500082DE9F8431E46174689460446CC
:103AD0000025DDF8208014E0334649462046CDF825
:103AE0000080FFF7A1FF0C2E10D00834E4B27A2C2E
:103AF00001D90C2E0CD0782C01D9102E08D06D1CB9
:103B0000EDB27A5D002AE7D1BDE8F883A41DEDE7A8
:103B100009F10100002400F0FF09F0E701B584B0CD
:103B200001214FF4807204A88DE807000B460022A3
:103B300078210248FEF7F0FB05B000BDA010002080
:103B400001B584B001214FF4807204A88DE807000C
:103B50000B46402278210248FEF7DEFB05B000BD8F
:103B6000A010002070477047FEF79CBC30B593B0A2
:103B700028216846FCF7ADFC14210AA8FCF7A9FC33
:103B8000002501200F9510951195010412958DE8DF
:103B9000230004904FF4E010CDE9081002240794AC
:103BA0006846FEF7BBFE08B172B6FEE70AA90F2011
:103BB00081E831004FF48060CDE90D0502210AA8AB
:103BC000FEF7D0FD08B172B6FEE74FF40040119049
:103BD0000F940FA8FEF750FD002801D072B6FEE743
:103BE00013B030BD70470000F0B50268164B174C9B
:103BF000174D4FF08047984205D0B84203D0A042FD
:103C000001D0A84203D122F070064A68324398429C
:103C100005D0B84203D0A04201D0A84203D122F47B
:103C20004074CA6822434C6922F080022243026039
:103C30008A68C2620A688262984201D10969016396
:103C400001214161F0BD0000002C01400004004052
:103C50000008004010B501F01F030121046A9940DB
:103C60008C430462016A9A401143016210BD10B591
:103C7000846842EA032224F47F440A432243826098
:103C800010BD826822F070020A4342F00701816091
:103C90007047000030B5036A026A22F00102026236
:103CA0004268846924F073050C682C4323F00205F4
:103CB0008B682B430A4DA8420BD123F00805CB6833
:103CC00022F440722B434D6923F0040315438A69A3
:103CD0002A434260846149684163036230BD000049
:103CE000002C014030B5026A036A23F0100303621E
:103CF000436884690D6824F4E64444EA05248D6829
:103D000022F0200242EA05120B4DA8420ED1CD68E6
:103D100022F0800242EA05124D6923F4406343EA2F
:103D200085038D6922F0400243EA85034360846184
:103D300049688163026230BD002C014030B5036ADE
:103D4000026A22F4807202624268C46923F400733A
:103D500024F073050C682C438D6843EA05230C4D51
:103D6000A8420ED1CD6823F4006343EA05234D69D0
:103D700022F4405242EA05128D6923F4806342EA3C
:103D800005124260C4614968C163036230BD00002E
:103D9000002C014030B5046A026A22F480520262AB
:103DA0004268C3690D6823F4E64343EA05238D683E
:103DB00024F4005444EA0534064DA84204D14D6968
:103DC00022F4804242EA85124260C361496801647C
:103DD000046230BD002C014010B5036A046A24F06F
:103DE00001040462846924F0F00444EA021423F01C
:103DF0000A020A438461026210BD10B5036A046AB4
:103E000024F010040462846923F0A00324F47044B5
:103E100044EA023243EA01118261016210BD10B529
:103E2000406A0021C185C184FFF733F910BD0168E4
:103E30000C3151E8002F22F4907241E80023002B4E
:103E4000F5D10168143151E8002F22F0010241E858
:103E50000023002BF5D1016B012909D101680C3138
:103E600051E8002F22F0100241E80023002BF5D189
:103E7000202180F8421000210163704708B590F8B6
:103E80004210222901D0022008BD82684FF48053DD
:103E90009A4201D1016921B1816A9A421BD04AB18B
:103EA0000AE00268816A5268C2F308020A80816AE5
:103EB000891C08E0026972B10268526802F07F0250
:103EC0000A70816A491C8162C18D491E0904090C6E
:103ED000C18503D01BE002685268F1E70168CA6837
:103EE00022F02002CA600168CA6822F48072CA60A7
:103EF00001684A6922F001024A61202180F84210DB
:103F000000214163026B012A03D0FFF76BFA002006
:103F100008BD016301680C3151E8002F22F0100246
:103F200041E80023002BF5D101680A68D20602D5CA
:103F30000A6849680091818DFFF7AAF8E7E7000059
:103F400070B5044600680169E26821F440511143EC
:103F500001612169A0680843616908432168CA6852
:103F600041F20C639A430243CA6020684169A26926
:103F700021F44071114341611E492068884202D1F9
:103F8000FEF796FC01E0FEF783FC00EBC00101EBBD
:103F90000012606864218000B2FBF0F3B3FBF1F320
:103FA0006FF018067343B2FBF0F5B2FBF0F605EBC9
:103FB0008305322303EB0515B5FBF1F5B6FBF1F6EE
:103FC00005F0F00505EB0615B2FBF0F6B2FBF0F0DC
:103FD000B0FBF1F06FF01802504306EB800003EBEA
:103FE0000010B0FBF1F0216800F00F002844886059
:103FF00070BD0000003801402DE9F0419846174699
:104000000E460446069D27E0681C25D02DB1FEF71C
:10401000B9F8A0EB0800A8421ED920680C3050E87F
:10402000001F21F4D07140E80012002AF5D1206869
:10403000143050E8001F21F0010140E80012002A6E
:10404000F5D1202084F8410084F84200002084F853
:1040500040000320BDE8F0812068006836EA0000D7
:1040600004D00020B842CFD00020F3E70120F9E7C8
:104070000148FFF70FB800003C110020FEE749009F
:1040800050EAC12018BF04204A0D18BF40F00100BB
:1040900040F2FF72B2EB515F08BF40F0020001280E
:1040A00008BF052070470907090E002804DB00F14E
:1040B000E02080F80014704700F00F0000F1E020CD
:1040C00080F8141D704730380A2801D2012070474B
:1040D000002070472DE9FE431F460D0080469146A3
:1040E00028D00026344609E038F8140001F04AF8D8
:1040F000314600F023FF641C0646A4B2AC42F3D361
:10410000284601F03FF80146304600F079FF0446AA
:10411000012F0DD00AA600BF00F0E4FE8DE82300B9
:1041200032460AA14846FCF765F82046BDE8FE8302
:104130000CA6F1E70EA11046FCF788F90020F5E780
:1041400056322048696768204176670025733A2017
:10415000252E32662028256C752073616D706C6584
:1041600073290A0056312048696768204176670044
:104170004E6F2068696768206C6576656C20736196
:104180006D706C65732064657465637465642E0A74
:10419000000000008CB0FEF78DF9FFF7E7FCFFF799
:1041A00025FBFFF70DFBFFF75FFBFFF7E3FBFFF7D7
:1041B0007BFBFFF7D1FA0021C448FEF71BFFC44880
:1041C000FDF74EFA0222C349C148FDF7CDFC4FF07E
:1041D000FF31BF48FDF72AFCFFF704FCFFF7E8FBBF
:1041E0004FF000090C23BCA249464846CDF8009088
:1041F000FFF768FCDFF8DCA241F2883BAAF1140A61
:10420000BB4F4FF4807421463846FDF7B5FF0028B8
:1042100048D13720FDF7AEFE21463846FDF7ACFF0A
:1042200000283FD1431E0722B2A1B548FFF7DBF8B3
:1042300000F0B8F98AF800000146B14800F0D0F962
:10424000002425462646D84600F0ACF900F04EFC86
:1042500022462B4600F04AFA761CB6B204460D46BA
:104260004645F1D30022A74B204600F0E7FA54461A
:10427000A54AA64BC4E9080100F04CFCA44AA54B92
:1042800000F046FDC4E9060102460B46A2A101A8C2
:10429000FBF7B0FF102301AA02210020CDF8009007
:1042A000FFF710FC4FF4007421463846FDF764FF19
:1042B0000028A5D13720FDF75DFE21463846FDF7E1
:1042C0005BFF00289CD14FF0FF384346052296A1A2
:1042D0008B48FFF788F800245F4625464FEA04061E
:1042E00000F060F900F002FC22462B4600F0FEF9D7
:1042F000761CB6B204460D46BE42F1D30022814B75
:1043000000F09CFA54460B46C4E90A010246D4E97F
:10431000080100F0FDFC864A054621F00046012315
:10432000618802F13200FFF7D5FEA0608048FCF7FB
:10433000B1F882B2474643467D497148FFF753F8CA
:104340007B4A0223A18802F60200FFF7C3FEE06069
:104350007748FCF79FF882B23B4675496848FFF7FB
:1043600042F87449A06888427DDA2178644800F0F8
:1043700037F96F4A0123618802F13200FFF7AAFE84
:10438000A0606B48FCF786F882B24FF0FF352B46F1
:1043900067495B48FFF727F8654A0223A18802F6C0
:1043A0000200FFF797FEE0606148FCF773F882B205
:1043B0002B465F495248FFF716F8E168A0680D46A2
:1043C000009000F03DFF5C4A20F00041914201DA8C
:1043D0005A4810E000F086FD06460F46284600F0D9
:1043E00081FD0022564B00F095FB32463B4600F023
:1043F00025FA00F049F9206100F074FD514A524B52
:1044000000F088FB514A524B00F082FC00F03CF96E
:10441000206100F067FD80460E46284600F062FDF0
:1044200005460F46009800F05DFD03968DE8A0015B
:104430000B46024647A13E48FBF7DCFE3C48FCF732
:1044400029F882B24FF0FF3339492D48FEF7CBFFF0
:10445000A4F80290A4F804904D46206900F042FDB3
:104460000B46024600E00BE042A104A8FBF7C2FEA7
:10447000102304AA062100200095FFF723FBBFE6C6
:1044800000F090F8607001461D4800F0A9F800F0B7
:1044900089F82070284631463A4A3B4B00F03AFBF7
:1044A0003A4A3B4B00F022F902460B4639A104A8D8
:1044B000FBF7A0FE4D46102304AA06210020CDF8EC
:1044C0000090FFF7FFFA6580A58099E6F4100020C0
:1044D0002C1000201400002057616974696E672059
:1044E000666F7220646574656374696F6E000000A6
:1044F000000C01404C656E6774680D0A00000000F6
:104500003C1100200088B340705F07CE1951BA3FBC
:1045100044FAEDEBC039F03F4C656E6774683A20A1
:10452000252E34666D0000004C6F61640D0A00009A
:104530005800002000401C450000A04100C0794404
:104540000000494037894160E5D0EC3F3FC6DCB50B
:10455000847CE03F56313A20252E32662056323A8E
:1045600020252E3266206C6F61643A20252E32663B
:104570000A0000004C6F61643A523A20252E3466DE
:10458000000000006ADE718A8EA42340105839B4FE
:10459000C8B639404C6F61643A433A20252E3266E2
:1045A000000000002DE9F04100250B4FDFF82C80C2
:1045B0002C46012637F814104046FDF7DDFD012892
:1045C00003D106FA04F02843C5B2641C082CF1DBC1
:1045D0002846BDE8F08100002E5300080008014085
:1045E0002DE9F04188B00D4680466C46204614A166
:1045F000FBF700FE072301263122302706FA03F1DC
:10460000294201D0225400E02754401C5B1EF5D5FE
:104610000D212154471C0A26E655871CE0192A461D
:104620000AA1FBF7E7FD38444FF0FF332654401C46
:1046300082B269464046FEF7D6FE08B0BDE8F0817A
:1046400042696E2832293A20000000004465632840
:104650003130293A2025640D0A00000010B50029E8
:104660000AD00878002807D005487844FCF726FBD4
:10467000002801D0002010BD0248784410BD000081
:10468000CE150000C615000021F00042A2F16052D4
:10469000B2F5801F01F0004328BFD2F17F6C0BD927
:1046A0005FEA001C43EAC20242EB507018BF704739
:1046B00028BF20F001007047B2F5801FBCBF18462C
:1046C00070474FEA410C1CF5001F02D2084600F06B
:1046D000B2BD70B500F0C8FA00000089FFF7F6BF60
:1046E0004FF00040A0F580007047000010B591EA3F
:1046F000030F48BF83F0004300F11283841A71EB6B
:10470000030C05D2121943EB0C03001B61EB0C01E7
:10471000DFF824E14FEA1154A4EB135C1EEA430FC7
:1047200018BF9EEA445F73D023EA0E03DCF1200E2B
:1047300021EA045143F4801332D322FA0CFE10EB29
:104740000E0023FA0CFE41EB0E01CCF1200E03FA11
:104750000EFE10EB0E0051F10001B1F5801FCCF1FF
:10476000200E32D201EB045112FA0EF2BDE81040D5
:1047700058BF7047401C38BF5FEA420218BF7047FD
:10478000002814BF20F0010041F100014FEA41036D
:1047900013F5001F38BF7047A1F1C04100F0B2BA55
:1047A000012A43EB0302ACF1200CDCF11F0E32BFF7
:1047B0004FF0000E23FA0CF310EB030041EB045111
:1047C000B4EB115FD0D0A1EB045101F58011490881
:1047D0005FEA300001EB04510ED350F1000038BF06
:1047E00012FA0EFE08D1BDE81040C9E7401C38BFE0
:1047F0005FEA4202CAD1C3E7BDE810404FEA410375
:1048000013F5001F38BF7047A1F1C04100F07ABA1C
:104810009EEA445F08D011EA5E0FBDE8104004BF75
:1048200001F0004100207047BDE8104070B500F075
:104830001BFA00BF64FBBE3E0000E0FF2DE9C04153
:1048400030B4DFF8A0C23CEA111418BF3CEA1314DC
:1048500000F0EC8081EA03051CEA111444EAD574E7
:1048600018BF1CEA131500F0C780A4EB05044FF035
:10487000004545EAC12145EAC32341EA505143EAD4
:10488000525304F17F74994204F500344FEAC0207A
:104890004FEAC22208BF904200F09C804FEA1365A5
:1048A0000FF24016765D4FEA134506FB05F7C7F198
:1048B000807706FB07F74FEAD737A7FB03687642F6
:1048C000C8F58038A7FB06CE38BFA8F1010807FB62
:1048D00008E64FF0000EA6FB028CE6FB03CEDCF1EF
:1048E000000CCEF1004E38BFAEF1010EA6FB0C5805
:1048F0004FF000074FF00005E6FB0E87A1FB08C64E
:10490000A0FB07CE16EB0E0645F10005E1FB07659F
:1049100015F1E04E7EBFA4F580345FEA46066D4196
:1049200016F1800745F100054FEA17274FEA0666A2
:1049300047EA0567A6F1DE46B6F1805F4FEA152526
:104940001FD9384624F0010C05EBC471BCF1FE6F91
:1049500001EB0C1102D8F0BCBDE8008124425CBF21
:1049600001F5801E9EEAC47F02D4F0BCBDE8008140
:10497000244238D4F0BCA1F1C041BDE8004100F0B0
:10498000C1B94FEAD22242EA43524FEAD323A7FBEE
:1049900002864FEAD02040EA415007FB03661EEA38
:1049A0000E0F4FEAD12105FB026658BFA6EB005659
:1049B000B6EB00564FEA520E4EEAC37E18EB0E0ECF
:1049C00056EB530EBDD518EB02085E417F1C55F126
:1049D0000005B6E74FF480154FF000074FF00006D2
:1049E0004FF00008ADE7F0BC4FF0000001F1C0410E
:1049F00001F00041BDE8008111EA0C1F0CEA13151B
:104A000000D00CE013EA0C1F00F025804FF00000EE
:104A1000F0BC81EA030101F00041BDE80081F0BC77
:104A2000BDE8004181EA030100F06CB9F0BCBDE8CB
:104A3000004170B500F018F9097EFC3E00F007B89F
:104A400081EA03014FF0000001F00041704781EA64
:104A5000030100F057B9F0BCBDE800414FF0000081
:104A600021497047FFFDFBF9F7F5F4F2F0EEEDEBAD
:104A7000E9E8E6E4E3E1E0DEDDDBDAD8D7D5D4D35C
:104A8000D1D0CFCDCCCBCAC8C7C6C5C4C2C1C0BFA8
:104A9000BEBDBCBBBAB9B8B7B6B5B4B3B2B1B0AFAE
:104AA000AEADACABAAA9A8A8A7A6A5A4A3A3A2A192
:104AB000A09F9F9E9D9C9C9B9A999998979796954D
:104AC00095949393929191908F8F8E8E8D8C8C8BE9
:104AD0008B8A898988888787868585848483838271
:104AE000828181800000FF070000F87FB0FA80F328
:104AF00010FA03F10AD0C3F11D0303F580634FEAF6
:104B000041504FEA035202EBD12170474FF00000B1
:104B100070470000DFF848C170B51CEA111E1EBFC7
:104B20001CEA13159EEA0C0F95EA0C0F00F06F803B
:104B300081EA030423EA4C134EEAD47E21EA4C11A5
:104B400041F4801143F48013AE44A1FB024CA0FB5E
:104B50000365AEF17F7E361955EB0C05A1FB034CC6
:104B60004CF10003A0FB021C16EB0C06654153F14F
:104B70000003094218BF46F0010613F4007F0BD171
:104B80004FEA03314FEA0530340341EA155140EA58
:104B900016506FF003020AE04FEAC3214FEAC52026
:104BA000F40241EA555140EA56506FF0020202EB1E
:104BB0002E4201EB025585EACE710AD05FEA440C21
:104BC00018BF24F0004450F1000041F1000120EA38
:104BD000D47040F2FE7C624500D270BDA84214BF82
:104BE0004FF080444FF04044002E08BF0024BEF137
:104BF000806FA8BFA1F1C041BDE8704080F2828003
:104C00004FF0000001F1C04101F0004170479EEA01
:104C10000C0F0CEA131518BF95EA0C0F06D04FF0D5
:104C2000000081EA030E0EF0004170BD00F01CF898
:104C30008900013E00F007B800F009B84FEA430CC4
:104C40005FEA5C5C08D081EA030100F05BB84FEAE0
:104C5000410C5FEA5C5CF6D14FF0000001497047FF
:104C60000000FF070000F87F0EF1020E2EF0030E89
:104C70005EF8046B364205D4012A43EB030515F5B3
:104C8000001F12D8012841EB010C1CF5001F0CD8A5
:104C90000ED14FEAD17C15F5001F0CEB4C0C0CF13A
:104CA000020C08BF4CEBD37C04E04FF0080C01E091
:104CB0004FEAD37C0CEB4C0526FA05F606F0070606
:104CC000B6F1040C06D20EEB860CBDE870404CF039
:104CD000010C6047DFE80CF0090B02024FF00041C5
:104CE0004FF00000A1F5002170BD194610460128C3
:104CF00051EB010418BFD4F5001484BF002001F06B
:104D0000004170BD0808A0F500114FEA310170475D
:104D100010B591EA030F48BF83F000433FF5EEACB6
:104D2000841A71EB030C07D212198CF0004C43EB80
:104D30000C03001B61EB0C01DFF8A4E14FEA1154F6
:104D4000A4EB135C1EEA430F18BF9EEA445F00F019
:104D5000B08023EA6E03524221EA0451C3EB6E0392
:104D600038BF5B1EDCF1200E25D322FA0CFE10EBBF
:104D70000E0043FA0CFE41EB0E01CCF1200E03FABB
:104D80000EFE10EB0E0051F10001CCF1200E29D4E3
:104D900012FA0EF201EB0451BDE8104058BF704703
:104DA000401C1CBFB2F1004F704700280CBF491CCB
:104DB00020F00100704712EB020E43EB030218BF14
:104DC0004FF0010E4EEA4202ACF1200CDCF11E0E57
:104DD00054D943FA0CFE10EB0E0051F1FF31CCF127
:104DE0001E0ED5D50EF1010E12FA0EFE404141EB1A
:104DF000010101EB445C5FEA5C5C10D910EBDE70F2
:104E000001EB045138BFBEF1004FBDE8104018BFA0
:104E1000704700280CBF491C20F00100704730D2B9
:104E20004FEAD42C11F5001124F400641BD0B1FA20
:104E300081F20B3AA41AA41ED2F12003914030FA59
:104E400003F31943904001EBCC71002C01EB0451AA
:104E5000BDE81040A8BF704701F1C0414FF000000D
:104E600001F000417047B0FA80F310FA03F100D16D
:104E700010BDE41A173C4805C90AE4E701EB0451E8
:104E800010BD491001EB0451BDE810404FEA30005D
:104E900002E04FF0000170474A0008BF0042F8D01E
:104EA000B2F5001F28BF704701F000414FF000002D
:104EB00070479EEA445F07D011EA5E0FBDE81040DC
:104EC00004BF002100207047BDE8104070B5FFF717
:104ED000CBFE00BF40DFF63E83F000411046704736
:104EE0000000E0FF43004FEAD30C4FEA3C0C434084
:104EF0001FBF40070CF1605113F0FE4F70471CF0CC
:104F0000006F03D100200CF0004170470CF000430B
:104F100043EA507010B540EACC0000F046F900BFFB
:104F2000000000924FEA0001FFF7ECBE4FF0004195
:104F30004FF00000A1F500217047000090EA010F3A
:104F400048BF81F0004100F18281421A3CBF801AC3
:104F500089184FEAD0524FF07F4C1CEA410FA2EB68
:104F6000D15318BF9CEA026F00F03B804FF0004C19
:104F70004CEA00204CEA012121FA03FC10EB0C0C56
:104F80001ED202F1FF325FEA1C2040EBC25038BF54
:104F900070471CF07F0F4FEA400C18BFBCF17F4FE9
:104FA00038BF7047C3F12003994008BF20F00100CB
:104FB000BCF17F4F38BF7047A0F1C04000F03BB953
:104FC0004FEA3C00000A40EBC25028BF1CF0FF0F24
:104FD0004FEA400CE6D018BFBCF17F4F38BF704796
:104FE000EAE79CEA026F05D010EA5C0F08BF00F008
:104FF0000040704710B500F0D8F800BF64FBBE3E1B
:105000004FF47F0C1CEAD0121EBF1CEAD11392EAA7
:105010000C0F93EA0C0F00F0858090EA010F48BF57
:1050200042F4807240F4000C41F400002CF07F4107
:1050300020F07F4000B58142A2EB03020FF2081C72
:10504000ACEB504EC0F100009EF800E04FEA4E0E6F
:1050500000FB0EFC38BF49004FEA2C1C02F5FA0297
:105060000CFB0EF34FEACE1E4FEA112C4FEAC12182
:105070000EEB635E42EB22420EFB0CFC4FEA1C532C
:1050800000FB03114FEA112C4FEA01310EFB0CFC1F
:105090004FEADC4C00FB0C11C14228BF09184CEB55
:1050A00003335DF804EB10EB410143EBC250B2F562
:1050B0007C0F38BF704729D512F0F00F1CBF00F1EC
:1050C000C04000F00040704700818283848586875D
:1050D00088898B8C8D8E8F919293959697999A9CB7
:1050E0009D9FA0A2A3A5A7A8AAACAEB0B2B3B5B726
:1050F000B9BCBEC0C2C5C7C9CCCED1D4D7D9DCDFFC
:10510000E2E6E9ECF0F3F7FAFE0000004FEA400CAB
:105110000CF1807CBCF17E4F28BF7047B0F1C040DD
:1051200000F089B890EA010F0CEAD11348BF42F4AD
:105130008072624538BF634507D213F47F0F16D0E3
:1051400080EA010000F00040704710B500F02DF833
:10515000097EFC3E00F005B880EA010000F0004046
:10516000704780EA010000F0004000F064B812F4DB
:105170007F0F04BF0248704780EA010000F05BB86F
:105180000000C07FB0FA80F310FA03F2C3F19D0370
:105190000AD0D90501EB1220530638BF704700F141
:1051A000010008BF20F0010070470EF1020E2EF042
:1051B000030E5EF8044B244204D44FEA4102B2F1DC
:1051C0007F4F11D84FEA4003B3F17F4F0CD80ED177
:1051D0004FEAD07CB2F17F4F0CEB4C0C0CF1020C7F
:1051E00008BF4CEBD17C04E04FF0080C01E04FEA23
:1051F000D17C0CEB4C0324FA03F404F00704B4F163
:10520000040C06D20EEB840CBDE810404CF0010CEF
:105210006047DFE80CF0070802024FF00040A0F5FD
:10522000800010BD0846420018BFD2F1807288BFCE
:1052300000F0004010BDFF2141EAD050C00570478A
:1052400090EA010F48BF81F000413FF57EAE421A5F
:1052500004D882F00042A0EB020011444FEAD05281
:105260004FF07F4C1CEA410FA2EBD15318BF9CEAD0
:10527000026F4AD04FF0004C4CEA00204CEA01216A
:1052800021FA03FCB0EB0C0C0FD412F0FE0F36D059
:105290005FEA4C001DD5001240EBC25038BF70478A
:1052A0001CF03F0F18BF70470BE0A2F101025FEA4C
:1052B0001C2040EBC25038BF70471CF07F0F18BF56
:1052C0007047C3F12003994014BF401E20F0010035
:1052D000704780084FEA122308BF7047B0FA80FC7D
:1052E000A2EB0C02CCF1280C60FA0CF093EA122F1E
:1052F00004BF00EBC25070474FEAC3707047130AF7
:105300005FEADC1008BF7047F6E79CEA026F04D042
:1053100010EA5C0F08BF0020704710B5FFF745FF8B
:1053200040DFF63E81F000407047FBF72EBA0100E7
:10533000020004000800100020004000800001026C
:1053400002030405060708090A0B0C0D0E0F1010C6
:10535000010202030405060708090A0B0C0D0E0FD3
:105360001010000000000000000001020304060706
:105370000809000000000102030400000000000012
:105380000000002F000000000700070000147F1439
:105390007F1400242A7F2A12006264081323003637
:1053A0004955225000000503000000001C22410066
:1053B000000041221C000014083E08140008083EAA
:1053C0000808000000A060000008080808080000A5
:1053D00060600000002010080402003E5149453E74
:1053E0000000427F40000042615149460021414592
:1053F0004B31001814127F10002745454539003CF9
:105400004A494930000171090503003649494936C6
:1054100000064949291E00003636000000005636B5
:105420000000000814224100001414141414000099
:105430004122140800020151090600324959513E27
:10544000007C1211127C007F49494936003E4141DF
:105450004122007F4141221C007F49494941007F90
:1054600009090901003E4149497A007F0808087F7F
:105470000000417F4100002040413F01007F0814AF
:105480002241007F40404040007F020C027F007FAD
:105490000408107F003E4141413E007F0909090692
:1054A000003E4151215E007F0919294600464949C5
:1054B00049310001017F0101003F4040403F001F92
:1054C0002040201F003F4038403F00631408146311
:1054D00000070870080700615149454300007F41FB
:1054E000410000552A552A55000041417F00000423
:1054F000020102040040404040400000010204005C
:10550000002054545478007F4844443800384444C0
:10551000442000384444487F00385454541800084C
:105520007E0901020018A4A4A47C007F080404786A
:105530000000447D4000004080847D00007F1028F2
:1055400044000000417F4000007C04180478007C87
:105550000804047800384444443800FC2424241807
:105560000018242418FC007C080404080048545443
:10557000542000043F444020003C4040207C001C5C
:105580002040201C003C4030403C0044281028446F
:10559000001CA0A0A07C004464544C4414141414B7
:1055A00014140000000000000000000000000000D3
:1055B0000000000000F80000000000000033300090
:1055C000000000100C06100C060000000000000097
:1055D000000040C07840C0784000043F04043F040D
:1055E0000400007088FC08300000001820FF211E15
:1055F0000000F008F000E018000000211C031E214C
:105600001E0000F00888700000001E2123241927C6
:10561000211010160E000000000000000000000025
:105620000000000000E0180402000000000718203D
:10563000400000020418E0000000004020180700AD
:105640000000404080F0804040000202010F010253
:105650000200000000F0000000000101011F010134
:105660000100000000000000000080B07000000099
:105670000000000000000000000000010101010125
:1056800001010000000000000000003030000000B8
:10569000000000000000806018040060180601008F
:1056A000000000E010080810E000000F102020109B
:1056B0000F00001010F8000000000020203F202004
:1056C000000000700808088870000030282422219B
:1056D0003000003008888848300000182020201151
:1056E0000E000000C02010F8000000070424243F32
:1056F000240000F8088888080800001921202011DB
:105700000E0000E0108888180000000F1120201102
:105710000E0000380808C83808000000003F0000EC
:1057200000000070880808887000001C22212122D7
:105730001C0000E010080810E000000031222211D7
:105740000F00000000C0C00000000000003030006A
:1057500000000000008000000000000080600000E9
:105760000000000080402010080000010204081022
:105770002000404040404040400004040404040431
:1057800004000008102040800000002010080402DF
:105790000100007048080808F000000000303601E1
:1057A0000000C030C828E810E000071827242314A0
:1057B0000B000000C038E0000000203C230202275C
:1057C000382008F8888888700000203F20202011A9
:1057D0000E00C030080808083800071820202010E4
:1057E000080008F808080810E000203F20202010DA
:1057F0000F0008F88888E8081000203F20202320A8
:10580000180008F88888E8081000203F20000300EE
:105810000000C03008080838000007182020221EA9
:10582000020008F808000008F808203F21010121C3
:105830003F20000808F8080800000020203F202032
:10584000000000000808F8080800C08080807F0081
:10585000000008F888C028180800203F20012638DA
:10586000200008F8080000000000203F2020202031
:10587000300008F8F800F8F80800203F003F003F2B
:10588000200008F830C00008F808203F2000071862
:105890003F00E01008080810E0000F102020201042
:1058A0000F0008F808080808F000203F2101010156
:1058B0000000E01008080810E0000F1824243850F9
:1058C0004F0008F8888888887000203F2000030C6B
:1058D0003020007088080808380000382021212274
:1058E0001C00180808F8080818000000203F2000D5
:1058F000000008F808000008F808001F20202020F9
:105900001F000878880000C83808000007380E011A
:105910000000F80800F80008F800033C0700073C06
:105920000300081868808068180820302C03032CB6
:1059300030200838C800C83808000000203F200088
:10594000000010080808C838080020382621202048
:105950001800000000FE020202000000007F40402C
:105960004000000C30C000000000000000010638BC
:10597000C00000020202FE000000004040407F0024
:105980000000000004020202040000000000000009
:105990000000000000000000000080808080808007
:1059A00080800002020400000000000000000000EF
:1059B0000000000080808080000000192422222244
:1059C0003F2008F8008080000000003F11202011D7
:1059D0000E000000008080800000000E11202020BA
:1059E0001100000000808088F800000E11202010B7
:1059F0003F200000808080800000001F22222222A1
:105A00001300008080F0888888180020203F202024
:105A100000000000808080808000006B949494934C
:105A2000600008F8008080800000203F21000020F6
:105A30003F2000809898000000000020203F202098
:105A40000000000000809898000000C08080807FE7
:105A5000000008F8000080808000203F24022D30E4
:105A60002000000808F8000000000020203F20204F
:105A700000008080808080808000203F20003F20C8
:105A8000003F8080008080800000203F21000020B7
:105A90003F200000808080800000001F2020202008
:105AA0001F00808000808000000080FFA120201166
:105AB0000E000000008080808000000E112020A0D9
:105AC000FF80808080008080800020203F21200097
:105AD0000100000080808080800000332424242482
