:020000040800F2
:1000000080070020910100088F1D0008F7180008E4
:100010008D1D000893040008412400080000000022
:10002000000000000000000000000000471F000862
:100030009504000800000000451F0008491F000843
:10004000AB010008AB010008AB010008AB010008E0
:10005000AB010008AB010008AB010008AB010008D0
:10006000AB010008AB010008AB010008AB010008C0
:10007000AB010008AB010008AB010008AB010008B0
:10008000AB010008AB010008AB010008AB010008A0
:10009000AB010008AB010008AB010008AB01000890
:1000A000AB010008AB010008AB010008AB01000880
:1000B000AB010008AB010008AB010008AB01000870
:1000C000AB010008AB010008AB010008AB01000860
:1000D000AB01000835240008AB010008AB010008A3
:1000E000AB010008AB010008AB01000800F002F80A
:1000F00000F03FF80AA090E8000C82448344AAF183
:100100000107DA4501D100F034F8AFF2090EBAE880
:100110000F0013F0010F18BFFB1A43F0010318473B
:10012000D02C0000F02C0000103A24BF78C878C111
:10013000FAD8520724BF30C830C144BF04680C60ED
:10014000704700000023002400250026103A28BF35
:1001500078C1FBD8520728BF30C148BF0B60704739
:10016000642900F07F80002070471FB51FBD10B5C7
:1001700010BD00F054F91146FFF7F7FF02F072F9D5
:1001800000F072F903B4FFF7F2FF03BC00F07AF954
:100190000948804709480047FEE7FEE7FEE7FEE71B
:1001A000FEE7FEE7FEE7FEE7FEE7FEE70448054957
:1001B000054A064B70470000AB1F0008ED00000821
:1001C00080010020800700208003002080030020A1
:1001D0000FB41CB5084B06AA7B44694600900598ED
:1001E00000F005F904460020694600F013F92046A6
:1001F0001CBC5DF814FB0000390200002DE9F04141
:100200000E460446002020622046E168884730B34D
:10021000252805D0D4E901219047206A401CF2E747
:10022000E168204600278847050018D0A5F1410065
:10023000192802D820354FF4006732462946204657
:100240002760FFF78DFF40B1012804D0F61D26F08E
:1002500007060836D8E7361DD6E72846DAE7206ACB
:10026000BDE8F0812DE9F0410646002410687529AB
:10027000314616A510D0AFF30080002802DA4042C4
:1002800013A507E031688A0701D512A502E04907E6
:1002900004D511A5012401E0AFF3008000210A225A
:1002A00006F1240709E0B0FBF2FCB0FBF2F302FB1D
:1002B0001C00303078541846491C0028F3D12346DE
:1002C0002A463046BDE8F04100F032B80000000098
:1002D0002D0000002B000000200000004FF0000265
:1002E00000B5134694469646203922BFA0E80C502C
:1002F000A0E80C50B1F12001BFF4F7AF090728BF07
:10030000A0E80C5048BF0CC05DF804EB890028BF82
:1003100040F8042B08BF704748BF20F8022B11F0AB
:10032000804F18BF00F8012B704770477047704727
:100330002DE9F0470D4699469246044600F12408FF
:100340000168880604D5E06921F01001216000E011
:100350000120A84201DD471B00E00027A1697A19AE
:1003600002EB0900081AA0612078C00602D42046DA
:10037000AFF30080002608E0D4E901211AF8060056
:100380009047206A401C761C20624E45F4DB2078A2
:10039000C0060AD52046AFF3008006E0D4E901216B
:1003A00030209047206A401C2062381EA7F10107C8
:1003B000F4DC07E0D4E9012118F805009047206A31
:1003C000401C2062281EA5F10105F3DC2046AFF396
:1003D00000802078000602D50220BDE8F0870120C9
:1003E000FBE7000001694A1C02610878704700B50C
:1003F0008FB0CDE901310021059105497944CDE95E
:10040000031011466846FFF7F9FE0FB000BD00006B
:10041000E5FFFFFF0A6802F8010B0A6070477546A6
:1004200000F02CF8AE4605006946534620F0070060
:10043000854618B020B5FFF7B9FEBDE820404FF063
:1004400000064FF000074FF000084FF0000B21F0BE
:100450000701AC46ACE8C009ACE8C009ACE8C0098B
:10046000ACE8C0098D46704710B50446AFF3008074
:100470002046BDE81040FFF785BE000000487047E9
:100480001C01002001491820ABBEFEE72600020037
:100490007047FEE7704772B6FEE710B590F821107E
:1004A0000022022905D00421816380F82020012048
:1004B00010BD01680B6823F00E030B6001680B6828
:1004C00023F001030B6090F84030C46B012101FA66
:1004D00003F3636080F8211080F82020104610BDDF
:1004E00010B590F821100024022903D00421816363
:1004F00001243DE001680A6822F00E020A600168EA
:100500000A6822F001020A601A4A0168914201D188
:10051000012121E0174A1432914201D110211BE040
:10052000144A2832914201D1891515E0114A3C3212
:10053000914201D189140FE00E4A5032914202D10A
:100540004FF4803108E00B4A6432914202D14FF4FB
:10055000801101E04FF08071064A083A5160012194
:1005600080F82110002180F82010416B01B18847EC
:10057000204610BD0800024070B5044600F004F9A2
:100580000546601C02D004480078044400F0FCF8E2
:10059000401BA042FAD370BD040000202DE9F84FA3
:1005A000DFF8B8910024A9F1040B23460F2709F1C5
:1005B000040AABF1040EC9E00125A5402A40AA4275
:1005C0007DD1674ED1F804C0ACEB0608B44532D0FB
:1005D00014DCBCF1030F3AD009DCBCF1000F2AD0C7
:1005E000BCF1010F1CD0BCF1020F31D11DE0BCF1F8
:1005F000110F17D0BCF1120F2AD119E0B8F5881FDE
:1006000019D006DCB8F5803F15D0B8F5801F1FD192
:1006100011E0B8F5001F0ED0B8F5041F18D10AE09C
:10062000CB6815E0CB681B1D12E0CB6808330FE0E8
:10063000CB680C330CE08B682BB1012B4FF0080317
:1006400003D0456104E0042302E0056100E00023DB
:10065000FF2A01D8064601E000F104064FEA8405AE
:1006600001D9A5F12005D6F8008007FA05FC28EA93
:100670000C0803FA05F548EA0508C6F800804D683D
:10068000ED0062D5374DAE6946F00106AE61AD6949
:1006900024F0030605F001050095334D06EB050C2B
:1006A000DCF80850A607360F07FA06F825EA080511
:1006B000DFF8B880404503D14FF0000817E044E070
:1006C000DFF8AC80404502D14FF001080FE0DFF8C1
:1006D000A480404502D14FF0020808E0DFF898807E
:1006E000404502D14FF0030801E04FF0040808FA3A
:1006F00006F848EA0508CCF808804D68D9F800608B
:10070000ED024D4601D5164300E096432E604D683C
:10071000DAF80060AD02554601D5164300E0964375
:100720002E604D68DBF80060AD035D4601D51643D1
:1007300000E096432E604D68DEF80060ED037546DC
:1007400001D5164300E096432E60641C0D682A46CE
:10075000E5407FF431AFBDE8F88F000008040140A8
:10076000000011100010024000000140000801408C
:10077000000C014000100140001401408068084056
:1007800000D00120704700000148806870470000D9
:100790000400002070B5040025D094F83D00002529
:1007A00020B984F83C50204600F050F9242084F809
:1007B0003D002068016821F00101016020680168A6
:1007C00041F4004101602068016821F400410160AA
:1007D00000F098FA4D4A6168914201D84C4900E016
:1007E0004C49884201D2012070BD4B492368B0FBBF
:1007F000F1F15E6826F03F060E435E606368934247
:1008000006D94FF4967359434FF47A73B1FBF3F161
:100810002368491C1E6A26F03F063143196261684D
:10082000914210D84900401EB0FBF1F2521CC2F3B5
:100830000B02042A01D2042022E0B0FBF1F0401C9C
:10084000C0F30B001CE0A268F2B301EBC10303EBA1
:100850000116431EB3FBF6F35B1C43F480431B05F8
:1008600049D092B301EBC10202EB0111401EB0FB73
:10087000F1F0401CC0F30B0040F4804040F4004015
:100880002168CA694CF6FF739A431043C861D4E9E2
:10089000071001432068026822F0C0021143016082
:1008A000D4E9030101432068826848F2FF339A4388
:1008B00011438160D4E9050108432168CA6822F028
:1008C000FF021043C86001E00EE016E020680168F6
:1008D00041F0010101602564202084F83D0025637A
:1008E00084F83E50002070BD01EB4106431EB3FB6F
:1008F000F6F35B1CB3E70120C2E701EB4101401EA8
:10090000B0FBF1F0401CC0F30B00B7E7A08601007C
:1009100080841E0000093D0040420F002DE9FF4F7A
:1009200083B09A46DDE9119793460446DDF840808E
:10093000FFF72AFF054694F83D0020287FD11923B0
:10094000012240492046009501F06EF8002876D13A
:1009500094F83C00012872D0012084F83C00206803
:100960000168C90703D1016841F0010101602068F5
:10097000016821F400610160212084F83D004020DD
:1009800084F83E0000262664C4F82480A4F82A9047
:10099000608D20852C48E062CDE9007553465A46AB
:1009A0002046049900F0C0FF70B930E02A4639466D
:1009B000204601F0DFF858B1206C042804D12068EB
:1009C000016841F400710160012007B0BDE8F08FBB
:1009D000606A216800780861606A401C6062218D4D
:1009E000491E89B22185628D521E62852268536933
:1009F000DB435B070BD469B100781061606A401C6F
:100A00006062208D401E2085608D401E6085208D97
:100A10000028CBD12A463946204600F0D9FF0028CD
:100A2000CAD154F83D0B016841F4007101602020E7
:100A300004F81E09E67766770020C6E7FFE7022084
:100A4000C3E70000020010000000FFFF10B586B0F1
:100A50000021009101910291039100680F498842A1
:100A60001AD10F4CA06940F00800A061A069694646
:100A700000F008000490C020009012200190032094
:100A800003900848FFF78AFDE06940F40010E06138
:100A9000E06900F40010049006B010BD005400405E
:100AA00000100240000C01400248816802781144A5
:100AB0008160704704000020074810B5016841F0CC
:100AC00010010160032000F075F80F2000F006F817
:100AD00000F024F8002010BD0020024070B50D4D3C
:100AE00004464FF47A712878B1FBF0F00A4909689E
:100AF000B1FBF0F000F0DCFA48B9102C07D200226C
:100B00002146501E00F036F800206C6070BD0120B8
:100B100070BD000004000020100000200C4808B543
:100B2000816941F001018161816901F00101009158
:100B3000C16941F08051C161C06900F080500090EE
:100B40000448416821F0E06141F00071416008BD56
:100B50000010024000000140002809DB00F01F02E5
:100B6000012191404009800000F1E020C0F800110F
:100B700070470000F0B40E4B1B680C46C3F3022311
:100B8000C3F10705042D00D90425191D072901D239
:100B9000002300E0DB1E012606FA05F1491E214074
:100BA00099409E40761E16403143F0BC01F049BC8E
:100BB0000CED00E0064900F0070208684FF6FF035D
:100BC000184040EA0220034A1043086070470000C2
:100BD0000CED00E00000FA052DE9F0470F46050096
:100BE00061D0434E306800F00700B84209D2306847
:100BF00020F0070038433060306800F00700B8424A
:100C000051D128683B4C810712D5400703D5606855
:100C100040F4E06060602878000703D5606840F425
:100C2000605060606068A96820F0F0000843606070
:100C30002878C00728D06868012810D021680228C9
:100C400010D0890700292EDA616821F003010143E1
:100C50006160FFF799FD804641F288390DE0216817
:100C60008903EFE78901EDE7FFF78EFDA0EB0801AF
:100C7000494502D90320BDE8F0876068696800F043
:100C80000C00B0EB810FEFD1306800F00700B842E4
:100C90000BD9306820F0070038433060306800F02E
:100CA0000700B84201D00120E5E72878400705D5C4
:100CB0006068E96820F4E060084360602878000715
:100CC00006D56068296920F4605040EAC100606080
:100CD00000F038F86168084AC1F30311515CC8405C
:100CE0000649086006480068FFF7F8FE0020C2E7E2
:100CF0000020024000100240CE2500081000002015
:100D0000080000200448054900684968044AC1F306
:100D10000221515CC84070471000002000100240C2
:100D2000DE2500080448054900684968044AC1F303
:100D3000C221515CC84070471000002000100240E2
:100D4000DE2500080E4A51680E4801F00C03042B02
:100D500011D0082B0FD10C48C1F38343C903C05CE9
:100D60000AD55168084AC1F34041921E515C054AB8
:100D70005043B0FBF1F0704704494843704700000E
:100D80000010024000127A00BE25000800093D0054
:100D90002DE9F84F040070D02078C04DC00749D02D
:100DA0006868C0F38100012807D06868C0F381003B
:100DB000022809D16868C00306D52868800339D5A0
:100DC00060680028E7D035E06068B0F5803F0BD060
:100DD00010B1B0F5A02F11D0286820F48030286021
:100DE000286820F4802002E0286840F480302860E1
:100DF000606890B1FFF7C8FC06460AE0286840F436
:100E000080202860F0E700BFFFF7BEFC801B64284D
:100E100073D828688003F7D50CE0FFF7B5FC0646C9
:100E200005E000BFFFF7B0FC801B6428F0D82868FD
:100E30008003F7D420789A4E80074FF001094FF0D5
:100E4000000839D5686810F00C0F07D06868C0F347
:100E50008100022809D16868C00306D42868800789
:100E600014D52069012808D110E02069B0B1C6F876
:100E70000090FFF789FC074605E00AE1FFF784FCD4
:100E8000C01B0228C4D828688007F7D52868616984
:100E900020F0F80040EAC10028600DE0C6F80080AC
:100EA000FFF772FC074604E0FFF76EFCC01B022848
:100EB00023D828688007F7D4207800072CD57948F4
:100EC000A169D9B1C0F80090FFF75EFC074604E0C5
:100ED000FFF75AFCC01B02280FD8686A8007F7D5B5
:100EE00071484FF4FA510068B0FBF1F0009000BF78
:100EF0000098411E0091FAD20EE080E0C0F8008018
:100F0000FFF742FC074604E0FFF73EFCC01B022847
:100F100075D8686A8007F7D42078400760D5E869FB
:100F20000027C00008D4E86940F08050E861E86913
:100F3000012700F0805000905C480168C90513D477
:100F40000168834641F480710160FFF71DFC824611
:100F500006E000BFFFF718FCA0EB0A0064284ED89B
:100F6000DBF80000C005F5D5E06801280AD008B11B
:100F7000052813D0286A20F001002862286A20F092
:100F8000040002E0286A40F001002862E06841F2B3
:100F9000883B98B1FFF7F8FB82460BE0286A40F0E7
:100FA00004002862EEE700BFFFF7EEFBA0EB0A01AA
:100FB00059455AD8286A8007F6D50CE0FFF7E4FBBC
:100FC000824605E0FFF7E0FBA0EB0A0159454CD84B
:100FD000286A8007F6D41FB1E86920F08050E861E4
:100FE000E06988B36968C1F38101022944D002280D
:100FF000C6F8608004D0FFF7C7FB044638E034E051
:10100000FFF7C2FB074604E0FFF7BEFBC01B022848
:101010002BD828688001F7D4206AB0F5803F05D12D
:101020006868A16820F4003008436860D4E90801CA
:101030000843696821F4741108436860C6F8609039
:10104000FFF7A2FB044606E025E000BFFFF79CFB8C
:10105000001B022809D828688001F7D51BE000BFD3
:10106000FFF792FB001B022802D90320BDE8F88F8E
:1010700028688001F4D40EE00128F7D06868226A5D
:1010800000F48031914204D1616A00F4701088420A
:1010900001D00120EAE70020E8E70000001002404C
:1010A00000004242800442421000002000700040D4
:1010B00010B5401EB0F1807F01D3012010BD4FF06C
:1010C000E02460610F21601701F0BBF90020A061EE
:1010D00007202061002010BD10B590F83C20012AA7
:1010E00022D0012280F83C20CA688C6822F4407229
:1010F00022434C6822F4806222430C6822F400628E
:1011000022430C6922F4805222434C6922F400529B
:101110002243C969002322F480420A4301684A64D9
:1011200080F83C30002010BD022010BD70B590F852
:101130003C20012A26D0012480F83C40022280F87D
:101140003D2003685A689D6822F070060A683243A1
:101150005A600D4B02689A4208D0B2F1804F05D018
:101160000A4B9A4202D00A4B9A4204D1496825F0B0
:1011700080031943916080F83D40002180F83C10C5
:10118000084670BD022070BD002C014000040040E4
:101190000008004010B5040003D094F83D0010B1E1
:1011A00007E0012010BD002084F83C00204600F03C
:1011B0001FF8022084F83D00211D206800F0F6FE93
:1011C000012084F8460084F83E0084F83F0084F84B
:1011D000400084F8410084F8420084F8430084F819
:1011E000440084F8450084F83D00002010BD000054
:1011F00008B500680649884208D10648816941F46B
:1012000000618161806900F40060009008BD000009
:10121000002C01400010024070B5044690F83C00DC
:101220000025012817D0012684F83C60022084F8AC
:101230003D002068826822F0770222F47F428260BB
:101240000868502838D00DDC20284FD005DC90B33A
:10125000102811D14AE0022070BD302846D0402825
:101260000AD13BE060282FD070280DD0B0F5805F08
:1012700003D0B0F5005F12D0012584F83D60002056
:1012800084F83C00284670BDCB68D1E90121206874
:1012900000F0CFFE2068816841F0770109E0CB685B
:1012A000D1E90121206800F0C4FE2068816841F482
:1012B00080418160E1E719E0CA684968206800F070
:1012C0006DFF5021206806E0CA684968206800F078
:1012D00076FF6021206800F0B6FECEE7CA68496854
:1012E000206800F05BFF40212068F4E72268014697
:1012F0001046F0E700B585B0002100910191029100
:10130000039100680B49884212D10B48816941F072
:10131000040181618069694600F0040004904FF483
:10132000807000900220019003900448FFF736F986
:1013300005B000BD002C0140001002400008014033
:1013400070B5044690F83C0000260D4601280FD0E9
:10135000012084F83C006AB1042A1DD0082A2FD04D
:101360000C2A3FD00126002084F83C00304670BD96
:10137000022070BD206800F06FFE2068816941F096
:10138000080181612068816921F004018161206880
:1013900081692A69114311E0206800F085FE206808
:1013A000816941F4006181612068816921F4806173
:1013B0008161206881692A6941EA02218161D2E75D
:1013C000206800F09DFE2068C16941F00801C161FC
:1013D0002068C16921F00401C1612068C1692A69DE
:1013E000114311E0206800F0B7FE2068C16941F4A4
:1013F0000061C1612068C16921F48061C161206818
:10140000C1692A6941EA0221C161ACE710B5040053
:1014100003D094F83D0010B107E0012010BD00207A
:1014200084F83C00204600F01EF8022084F83D00BD
:10143000211D206800F0BAFD012084F8460084F8E0
:101440003E0084F83F0084F8400084F8410084F8AE
:10145000420084F8430084F8440084F8450084F88E
:101460003D00002010BD704710B50446022249B16E
:1014700004290ED0082913D094F84100012816D071
:10148000012010BD94F83E000128F9D184F83E20D7
:101490000FE094F83F000128F2D184F83F2008E0E3
:1014A00094F840000128EBD184F8402001E084F852
:1014B00041200122206800F0AFFD0F4920688842DA
:1014C00003D1426C42F4004242642068884208D052
:1014D000B0F1804F05D00949884202D008498842BE
:1014E00004D1816801F00701062903D0016841F0A9
:1014F00001010160002010BD002C014000040040EB
:101500000008004070477047F8B501680446086855
:10151000CA684B6910F00F0F4FF0000559D003F067
:10152000010602F49077374365D0C10705D0D10595
:1015300003D5616C41F001016164410705D5D9070C
:1015400003D0616C41F002016164810705D5D907C0
:1015500003D0616C41F004016164010707D502F01A
:101560002001314303D0616C41F008016164616C7A
:1015700000293AD0800604D5900602D5204600F016
:101580005FFE20684069616CC0F38010090700D4D9
:1015900060B3204600F02DFE20684069400621D54A
:1015A0002068143050E8001F21F0400140E800128C
:1015B000002AF5D1E06BA8B16D494163E06BFEF7FD
:1015C0008FFF002811D0E06B416B01B0BDE8F04007
:1015D000084783060FD593060DD52046BDE8F84091
:1015E00000F02EBE2046FFF78EFFF8BD2046FFF725
:1015F0008AFF6564F8BD266B2023012E7CD1C606C8
:101600007AD5D60678D508684868009048694FF0C2
:101610000206400640D5E16B086840680004000CF3
:10162000E8D0A28D8242E5D9E085886920282DD0B6
:1016300020680C3050E8001F21F4807140E800124F
:10164000002AF5D12068143050E8001F21F0010174
:1016500040E80012002AF5D12068143050E8001F3D
:1016600021F0400140E80012002AF5D184F8423010
:10167000256320680C3050E8001F21F0100140E87D
:101680000012002AF5D1E06BFEF707FF6663A08D1C
:10169000E18D401A81B22AE0A08DE18D401A81B21D
:1016A000E08D0028A6D00029A4D022680C3252E890
:1016B000000F20F4907042E80007002FF5D1206859
:1016C000143050E8002F22F0010240E80027002FDC
:1016D000F5D184F84230256320680C3050E8002FA3
:1016E00022F0100240E80023002BF5D1666320466B
:1016F000FFF708FFF8BDFFE705062BD5150629D52E
:1017000094F841002128F5D1A068B0F5805F01D19F
:101710002069B0B1206A411C2162216800784860CC
:10172000E08C401E0004000CE084E3D12068C16816
:1017300021F08001C1602068C16841F04001C160B2
:10174000D8E7206A0088C0F308004860206A801C3F
:101750002062E5E74006CDD55006CBD5CA682046C5
:1017600022F04002CA6084F8413000F0C3F8C1E7BB
:10177000E321000870B5040004D094F8410000256E
:1017800010B106E0012070BD84F84050204600F002
:1017900023F8242084F841002068C16821F4005116
:1017A000C160204600F0AEFD2068016921F490413F
:1017B00001612068416921F02A0141612068C16806
:1017C00041F40051C1606564202084F8410084F830
:1017D00042006563002070BD30B585B000240094E0
:1017E0000194029403940068184988422CD1184847
:1017F000816941F480418161816901F480410491F2
:10180000816941F0040181618069124D00F004009A
:1018100004904FF400700090022001900320039088
:1018200069462846FEF7BAFE2815CDE90004694648
:1018300028460294FEF7B2FE002211462520FFF74B
:1018400099F92520FFF788F905B030BD003801402F
:10185000001002400008014070472DE9F84304469B
:1018600090F841001F4616460D46202802D002205F
:10187000BDE8F8837DB176B100206064212084F852
:101880004100FEF781FFA6848046E684A068B0F59B
:10189000805F02D003E00120EAE7206910B12E4604
:1018A00000250EE000260CE08021204600F086FD99
:1018B000A0B9AEB116F8010B21684860E08C401E5B
:1018C000E084E08C43464FF0000200970028EBD103
:1018D0004FF04001204600F071FD30B10320C7E712
:1018E00035F8020BC0F30800E6E7202084F8410039
:1018F0000020BDE77047FEE701684A69D243520500
:101900000FD46FF480624A61002140F8301F20221A
:1019100042738173026942F0040202610173012083
:1019200070470020704700002DE9F8430446006826
:101930000D46DDE9089701689846164641F4807126
:1019400001604B4600224FF001112046009700F045
:101950006BF848B120680068C00502D54FF40070EC
:1019600020640320BDE8F883216805F0FE000861CB
:101970003B464A461549204600F09EF888B9206843
:101980004169806900903A464946204600F0F2F8E5
:1019900048B1206C042804D12068016841F400712A
:1019A00001600120DEE7F5B2B8F1010F09D021682E
:1019B000300A08613A464946204600F0DBF8002824
:1019C000E7D1206805610020CCE70000020001009B
:1019D00070B516460D4604461EE02046FFF78CFF04
:1019E00008B1012070BD681C16D0FEF7CDFE801B2B
:1019F000A84200D885B920684069C04340070BD58C
:101A0000002044F8300F20216173A073216941F058
:101A1000200121612073E4E720684069C04340074A
:101A2000DBD4002070BD00002DE9F0479846174632
:101A30000D460446C1F30746DDF820902AE000BFBA
:101A4000B8F1FF3F26D0FEF79FFEA0EB090141450C
:101A500002D8B8F1000F1DD12068012E16D0806980
:101A600025EA00000004000C12D00020B84211D179
:101A7000002044F8300F20216173A073216941F0E8
:101A80002001216120730120BDE8F0874069E7E76C
:101A90000120EBE72068012E0AD0806925EA0000CA
:101AA0000004000C06D00020B842C9D00020EBE7AB
:101AB0004069F3E70120F7E72DE9F047984616461D
:101AC0000D4604464FF000094FF0200AC1F30747C6
:101AD00023E020684069C043400515D420680168B0
:101AE00041F40071016021686FF480604861C4F8BE
:101AF000309084F83DA084F83E90216C41F00401C0
:101B0000216484F83C9021E0701C06D0FEF73CFE76
:101B1000A0EB0800B04203D816B1012F1FD021E07E
:101B20002068012F15D0806925EA00000004000C10
:101B300018D000BF44F8309F84F80DA084F80E90B0
:101B4000216941F02001216184F80C900120BDE859
:101B5000F087406925EA00000004000CEAD1206803
:101B6000406901E02068806925EA00000004000C5B
:101B7000AFD1ECE770B516460D4604461EE0204690
:101B8000FFF7BAFE08B1012070BD681C16D0FEF741
:101B9000FBFD801BA84200D885B920684069C0437E
:101BA00000060BD5002044F8300F20216173A0738C
:101BB000216941F0200121612073E4E72068406938
:101BC000C0430006DBD4002070BD000010B586B015
:101BD00000241A48019402940394816941F0100191
:101BE0008161816901F010010491816941F0200156
:101BF0008161816901F020010491816941F0040152
:101C00008161816901F004010491816941F0080159
:101C100081618069694600F008000490FF2000900F
:101C20000748FEF7BBFC4FF44070CDE9000469465D
:101C300004480294FEF7B2FC06B010BD001002404A
:101C400000080140000C01400D4810B50B4901602F
:101C50000C49416000214FF480428160C0E90312C9
:101C600041618161C1610162FEF794FD002803D0EA
:101C7000BDE81040FEF70FBC10BD0000005400404E
:101C800038000020A086010010B596B000240F9403
:101C900010941194129413941C2108A81494FEF724
:101CA0001DFB20216846FEF719FB294827490160E2
:101CB0000121C0E901142321C0E9031444618461B6
:101CC000FFF768FA08B1FEF7E6FB4FF480500F907B
:101CD0000FA91F48FFF7A0FA08B1FEF7DCFB1C486C
:101CE000FFF794FB08B1FEF7D6FB139413A918482D
:101CF0001494FFF71BFA08B1FEF7CDFB7020089093
:101D00001220CDE909040420CDE90B400D940022F6
:101D100008A90F480E94FFF713FB08B1FEF7BBFBB1
:101D200000944FF40050CDE90440029401940394D0
:101D3000694607480794FFF7CFF908B1FEF7ABFBF8
:101D40000348FFF7D7FA16B010BD0000002C014081
:101D50008C0000200C4810B50A4901604FF4164170
:101D60004160002181600C22C160C0E904128161E0
:101D7000C161FFF7FFFC002803D0BDE81040FEF76B
:101D80008ABB10BD00380140D4000020FEE7FEE70A
:101D900070B5002404F1B000C0B200F0AFF800202C
:101DA00000F0ACF8102000F0A9F80025002000F0A9
:101DB000B7F86D1CEDB2802DF8D3641CE4B2082C8A
:101DC000E8D370BD70B5C820FEF7D6FB044D0024E3
:101DD000285D00F093F8641CE4B2172CF8D370BDB2
:101DE0001400002010B50446B031C8B200F086F8E7
:101DF000102040EA141000F081F804F00F00BDE854
:101E0000104000F07BB800002DE9F047203A002494
:101E1000089E0F468146D5B27F2803D900208F1C2B
:101E20008146FFB2102B394612D0FFF7DBFF1B496A
:101E300005EB450001EB4005285D0EB1C043C0B283
:101E400000F06EF8641CE4B2062CF5D3BDE8F08710
:101E5000FFF7C8FFDFF8488004EB051118F8010010
:101E60000EB1C043C0B200F05BF8641CE4B2082CB1
:101E7000F2D37F1CF9B24846FFF7B4FF002447466F
:101E800004EB05103844007A0EB1C043C0B200F034
:101E900047F8641CE4B2082CF2D3D7E7E625000823
:101EA0000E2800082DE9F8431E46174689460446C9
:101EB0000025DDF8208014E0334649462046CDF861
:101EC0000080FFF7A1FF0C2E10D00834E4B27A2C6A
:101ED00001D90C2E0CD0782C01D9102E08D06D1CF5
:101EE000EDB27A5D002AE7D1BDE8F883A41DEDE7E5
:101EF00009F10100002400F0FF09F0E701B584B00A
:101F000001214FF4807204A88DE807000B460022DF
:101F100078210248FEF702FD05B000BD3800002020
:101F200001B584B001214FF4807204A88DE8070048
:101F30000B46402278210248FEF7F0FC05B000BDB8
:101F40003800002070477047FEF7AEBD30B58FB047
:101F500028216846FEF7C2F914210AA8FEF7BEF947
:101F600001210804CDE90010002402940225049107
:101F7000CDE907504FF4E01009906846FEF708FFDE
:101F800008B172B6FEE70F20CDE90A054FF4806074
:101F9000CDE90C4002210AA80E94FEF71DFE002890
:101FA00001D072B6FEE70FB030BD7047F0B50268E1
:101FB000164B174C174D4FF08047984205D0B8424A
:101FC00003D0A04201D0A84203D122F070064A6893
:101FD0003243984205D0B84203D0A04201D0A84273
:101FE00003D122F44074CA6822434C6922F0800273
:101FF000224302608A68C2620A688262984201D102
:102000000969016301214161F0BD0000002C01401C
:10201000000400400008004010B501F01F0301213A
:10202000046A99408C430462016A9A401143016238
:1020300010BD10B5846842EA032224F47F440A43A9
:102040002243826010BD826822F070020A4342F08F
:10205000070181607047000030B5036A026A22F010
:10206000010202624268846924F073050C682C4303
:1020700023F002058B682B430A4DA8420BD123F0B5
:102080000805CB6822F440722B434D6923F004030A
:1020900015438A692A434260846149684163036247
:1020A00030BD0000002C014030B5026A036A23F005
:1020B00010030362436884690D6824F4E64444EA2B
:1020C00005248D6822F0200242EA05120B4DA84239
:1020D0000ED1CD6822F0800242EA05124D6923F448
:1020E000406343EA85038D6922F0400243EA850399
:1020F0004360846149688163026230BD002C014005
:1021000030B5036A026A22F4807202624268C469CE
:1021100023F4007324F073050C682C438D6843EAA4
:1021200005230C4DA8420ED1CD6823F4006343EA89
:1021300005234D6922F4405242EA05128D6923F4C9
:10214000806342EA05124260C4614968C163036268
:1021500030BD0000002C014030B5046A026A22F450
:10216000805202624268C3690D6823F4E64343EA81
:1021700005238D6824F4005444EA0534064DA84232
:1021800004D14D6922F4804242EA85124260C36163
:1021900049680164046230BD002C014010B5036A37
:1021A000046A24F001040462846924F0F00444EA1F
:1021B000021423F00A020A438461026210BD10B5C2
:1021C000036A046A24F010040462846923F0A00303
:1021D00024F4704444EA023243EA0111826101624C
:1021E00010BD10B5406A0021C185C184FFF78BF98D
:1021F00010BD01680C3151E8002F22F4907241E8C3
:102200000023002BF5D10168143151E8002F22F092
:10221000010241E80023002BF5D1016B012909D10E
:1022200001680C3151E8002F22F0100241E8002330
:10223000002BF5D1202180F8421000210163704766
:1022400008B590F84210222901D0022008BD82680A
:102250004FF480539A4201D1016921B1816A9A42B7
:102260001BD04AB10AE00268816A5268C2F30802D0
:102270000A80816A891C08E0026972B102685268AA
:1022800002F07F020A70816A491C8162C18D491E79
:102290000904090CC18503D01BE002685268F1E70C
:1022A0000168CA6822F02002CA600168CA6822F484
:1022B0008072CA6001684A6922F001024A612021E5
:1022C00080F8421000214163026B012A03D0FFF71E
:1022D000C3FA002008BD016301680C3151E8002FEA
:1022E00022F0100241E80023002BF5D101680A68B2
:1022F000D20602D50A6849680091818DFFF702F97C
:10230000E7E7000070B5044600680169E26821F45F
:102310004051114301612169A06808436169084384
:102320002168CA6841F20C639A430243CA6020687C
:102330004169A26921F44071114341611E4920683D
:10234000884202D1FEF7EEFC01E0FEF7DBFC00EB79
:10235000C00101EB0012606864218000B2FBF0F361
:10236000B3FBF1F36FF018067343B2FBF0F5B2FB69
:10237000F0F605EB8305322303EB0515B5FBF1F50C
:10238000B6FBF1F605F0F00505EB0615B2FBF0F62D
:10239000B2FBF0F0B0FBF1F06FF01802504306EB27
:1023A000800003EB0010B0FBF1F0216800F00F009B
:1023B0002844886070BD0000003801402DE9F041DC
:1023C000984617460E460446069D27E0681C25D011
:1023D0002DB1FEF7D9F9A0EB0800A8421ED920685C
:1023E0000C3050E8001F21F4D07140E80012002AA0
:1023F000F5D12068143050E8001F21F0010140E8B9
:102400000012002AF5D1202084F8410084F842000F
:10241000002084F840000320BDE8F08120680068B7
:1024200036EA000004D00020B842CFD00020F3E705
:102430000120F9E70148FFF767B80000D400002049
:10244000FEE70907090E002804DB00F1E02080F810
:102450000014704700F00F0000F1E02080F8141D18
:102460007047000008B5FEF727FBFFF76FFDFFF789
:10247000ADFBFFF7E9FBFFF76DFCFFF705FC002163
:102480001348FEF7F1FFFFF79DFCFFF781FC0025E5
:10249000102310A2294628460095FFF703FD0F4C94
:1024A0006420FEF769F800F025F8207001460C481A
:1024B00000F03EF822780BA10D48FDF789FE1023AD
:1024C0000B4A042100200095FFF7ECFCE8E7000030
:1024D0008C00002073746172740000000000002002
:1024E000D40000204C656E6774683A2025640000B3
:1024F0002C0000202DE9F04100250B4FDFF82C8047
:102500002C46012637F814104046FEF737F901280B
:1025100003D106FA04F02843C5B2641C082CF1DB91
:102520002846BDE8F0810000AC2500080008014005
:102530002DE9F04188B00D4680466C46204614A136
:10254000FDF746FE072301263122302706FA03F164
:10255000294201D0225400E02754401C5B1EF5D5CF
:102560000D212154471C0A26E655871CE0192A46EE
:102570000AA1FDF72DFE38444FF0FF332654401CCE
:1025800082B269464046FFF768F908B0BDE8F081BD
:1025900042696E2832293A20000000004465632811
:1025A0003130293A2025640D0A00000001000200A4
:1025B0000400080010002000400080000102020317
:1025C0000405060708090A0B0C0D0E0F1010000079
:1025D00000000000000001020304060708090000D3
:1025E0000000010203040000000000000000002FB2
:1025F000000000000700070000147F147F1400246F
:102600002A7F2A120062640813230036495522509B
:1026100000000503000000001C22410000004122D0
:102620001C000014083E08140008083E08080000BA
:1026300000A06000000808080808000060600000B2
:10264000002010080402003E5149453E0000427F30
:102650004000004261514946002141454B3100187C
:1026600014127F10002745454539003C4A4949303E
:1026700000017109050300364949493600064949F8
:10268000291E000036360000000056360000000803
:1026900014224100001414141414000041221408E0
:1026A00000020151090600324959513E007C1211C5
:1026B000127C007F49494936003E41414122007F5A
:1026C0004141221C007F49494941007F0909090114
:1026D000003E4149497A007F0808087F0000417F99
:1026E0004100002040413F01007F08142241007F4B
:1026F00040404040007F020C027F007F0408107FB2
:10270000003E4141413E007F09090906003E41511A
:10271000215E007F091929460046494949310001D7
:10272000017F0101003F4040403F001F2040201F2B
:10273000003F4038403F00631408146300070870EE
:10274000080700615149454300007F4141000055A1
:102750002A552A55000041417F000004020102046D
:10276000004040404040000001020400002054545A
:102770005478007F484444380038444444200038AA
:102780004444487F00385454541800087E0901021C
:102790000018A4A4A47C007F080404780000447DF1
:1027A0004000004080847D00007F1028440000002D
:1027B000417F4000007C04180478007C0804047801
:1027C00000384444443800FC2424241800182424ED
:1027D00018FC007C080404080048545454200004E9
:1027E0003F444020003C4040207C001C2040201CF6
:1027F000003C4030403C004428102844001CA0A06D
:10280000A07C004464544C441414141414140000A8
:1028100000000000000000000000000000000000B8
:1028200000F800000000000000333000000000103D
:102830000C06100C0600000000000000000040C064
:102840007840C0784000043F04043F040400007056
:1028500088FC08300000001820FF211E0000F0084E
:10286000F000E018000000211C031E211E0000F0F3
:102870000888700000001E2123241927211010163B
:102880000E0000000000000000000000000000003A
:1028900000E01804020000000007182040000002B9
:1028A0000418E0000000004020180700000040402D
:1028B00080F0804040000202010F0102020000008F
:1028C00000F0000000000101011F010101000000F3
:1028D00000000000000080B0700000000000000058
:1028E00000000000000000010101010101010000E1
:1028F0000000000000000030300000000000000078
:10290000000080601804006018060100000000E06C
:1029100010080810E000000F102020100F00001019
:1029200010F8000000000020203F20200000007070
:102930000808088870000030282422213000003068
:102940000888884830000018202020110E00000060
:10295000C02010F8000000070424243F240000F8E1
:102960000888880808000019212020110E0000E0C6
:10297000108888180000000F112020110E00003868
:102980000808C83808000000003F00000000007080
:10299000880808887000001C222121221C0000E009
:1029A00010080810E0000000312222110F00000082
:1029B00000C0C00000000000003030000000000037
:1029C00000800000000000008060000000000000A7
:1029D0008040201008000001020408102000404040
:1029E0004040404040000404040404040400000883
:1029F0001020408000000020100804020100007038
:102A000048080808F0000000003036010000C0301F
:102A1000C828E810E0000718272423140B00000042
:102A2000C038E0000000203C23020227382008F8CC
:102A3000888888700000203F202020110E00C030C0
:102A4000080808083800071820202010080008F897
:102A500008080810E000203F202020100F0008F890
:102A60008888E8081000203F20202320180008F85C
:102A70008888E8081000203F200003000000C030D4
:102A800008080838000007182020221E020008F855
:102A900008000008F808203F210101213F2000081C
:102AA00008F8080800000020203F20200000000057
:102AB0000808F8080800C08080807F00000008F83F
:102AC00088C028180800203F20012638200008F878
:102AD000080000000000203F20202020300008F8DF
:102AE000F800F8F80800203F003F003F200008F8F9
:102AF00030C00008F808203F200007183F00E01011
:102B000008080810E0000F10202020100F0008F81F
:102B100008080808F000203F210101010000E01032
:102B200008080810E0000F18242438504F0008F857
:102B3000888888887000203F2000030C30200070B7
:102B40008808080838000038202121221C001808B5
:102B500008F8080818000000203F2000000008F8CE
:102B600008000008F808001F202020201F00087817
:102B7000880000C83808000007380E010000F80877
:102B800000F80008F800033C0700073C03000818A1
:102B900068808068180820302C03032C3020083807
:102BA000C800C83808000000203F200000001008BE
:102BB0000808C83808002038262120201800000006
:102BC00000FE020202000000007F40404000000CB6
:102BD00030C000000000000000010638C000000204
:102BE0000202FE000000004040407F0000000000A4
:102BF00004020202040000000000000000000000C7
:102C000000000000000080808080808080800002C2
:102C100002040000000000000000000000000000AE
:102C20008080808000000019242222223F2008F8A2
:102C3000008080000000003F112020110E000000E5
:102C4000008080800000000E112020201100000074
:102C500000808088F800000E112020103F20000026
:102C6000808080800000001F22222222130000802A
:102C700080F0888888180020203F20200000000075
:102C8000808080808000006B94949493600008F8AA
:102C9000008080800000203F210000203F20008035
:102CA0009898000000000020203F20200000000035
:102CB00000809898000000C08080807F000008F8A5
:102CC000000080808000203F24022D30200000087A
:102CD00008F8000000000020203F20200000808035
:102CE000808080808000203F20003F20003F808047
:102CF000008080800000203F210000203F20000055
:102D0000808080800000001F202020201F00808005
:102D100000808000000080FFA12020110E00000034
:102D2000008080808000000E112020A0FF80808025
:102D300080008080800020203F21200001000000D2
:102D400080808080800000332424242419000080A7
:102D500080E0808000000000001F202000008080B4
:102D6000000000808000001F202020103F20808075
:102D700080000080808000010E3008060100808005
:102D80000080008080800F300C030C300F0000802A
:102D90008000808080000020312E0E312000808055
:102DA00080000080808080818E7018060100008085
:102DB0008080808080000021302C222130000000A3
:102DC0000000807C020200000000003F4040000242
:102DD000027C800000000040403F00000000000036
:102DE0000000FF00000000000000FF0000000000E5
:102DF000102E0008000000202C0000002801000810
:102E00003C2E00082C00002054070000440100085C
:102E100000000000010000001000000000000000A1
:102E20000024F400AED580A83FD30040A1C8DA1238
:0C2E300081CFD9F1DB40A4A68D14AF00C7
:04000005080000ED02
:00000001FF
